{"abi":[{"type":"constructor","inputs":[{"name":"_pokemonCardAddress","type":"address","internalType":"address"}],"stateMutability":"nonpayable"},{"type":"function","name":"buyCard","inputs":[{"name":"tokenId","type":"uint256","internalType":"uint256"}],"outputs":[],"stateMutability":"payable"},{"type":"function","name":"cancelListing","inputs":[{"name":"tokenId","type":"uint256","internalType":"uint256"}],"outputs":[],"stateMutability":"nonpayable"},{"type":"function","name":"listCard","inputs":[{"name":"tokenId","type":"uint256","internalType":"uint256"},{"name":"price","type":"uint256","internalType":"uint256"}],"outputs":[],"stateMutability":"nonpayable"},{"type":"function","name":"listings","inputs":[{"name":"","type":"uint256","internalType":"uint256"}],"outputs":[{"name":"tokenId","type":"uint256","internalType":"uint256"},{"name":"price","type":"uint256","internalType":"uint256"},{"name":"seller","type":"address","internalType":"address"},{"name":"isActive","type":"bool","internalType":"bool"}],"stateMutability":"view"},{"type":"function","name":"owner","inputs":[],"outputs":[{"name":"","type":"address","internalType":"address"}],"stateMutability":"view"},{"type":"function","name":"platformFee","inputs":[],"outputs":[{"name":"","type":"uint256","internalType":"uint256"}],"stateMutability":"view"},{"type":"function","name":"pokemonCardAddress","inputs":[],"outputs":[{"name":"","type":"address","internalType":"address"}],"stateMutability":"view"},{"type":"function","name":"renounceOwnership","inputs":[],"outputs":[],"stateMutability":"nonpayable"},{"type":"function","name":"setPlatformFee","inputs":[{"name":"newFee","type":"uint256","internalType":"uint256"}],"outputs":[],"stateMutability":"nonpayable"},{"type":"function","name":"transferOwnership","inputs":[{"name":"newOwner","type":"address","internalType":"address"}],"outputs":[],"stateMutability":"nonpayable"},{"type":"function","name":"updatePrice","inputs":[{"name":"tokenId","type":"uint256","internalType":"uint256"},{"name":"newPrice","type":"uint256","internalType":"uint256"}],"outputs":[],"stateMutability":"nonpayable"},{"type":"function","name":"withdrawFees","inputs":[],"outputs":[],"stateMutability":"nonpayable"},{"type":"event","name":"CardListed","inputs":[{"name":"tokenId","type":"uint256","indexed":true,"internalType":"uint256"},{"name":"seller","type":"address","indexed":true,"internalType":"address"},{"name":"price","type":"uint256","indexed":false,"internalType":"uint256"}],"anonymous":false},{"type":"event","name":"CardSold","inputs":[{"name":"tokenId","type":"uint256","indexed":true,"internalType":"uint256"},{"name":"seller","type":"address","indexed":true,"internalType":"address"},{"name":"buyer","type":"address","indexed":true,"internalType":"address"},{"name":"price","type":"uint256","indexed":false,"internalType":"uint256"}],"anonymous":false},{"type":"event","name":"ListingCancelled","inputs":[{"name":"tokenId","type":"uint256","indexed":true,"internalType":"uint256"}],"anonymous":false},{"type":"event","name":"OwnershipTransferred","inputs":[{"name":"previousOwner","type":"address","indexed":true,"internalType":"address"},{"name":"newOwner","type":"address","indexed":true,"internalType":"address"}],"anonymous":false},{"type":"error","name":"CannotBuyOwnListing","inputs":[]},{"type":"error","name":"InsufficientPayment","inputs":[]},{"type":"error","name":"InvalidPrice","inputs":[]},{"type":"error","name":"ListingNotActive","inputs":[]},{"type":"error","name":"NotApproved","inputs":[]},{"type":"error","name":"NotCardOwner","inputs":[]},{"type":"error","name":"NotListingOwner","inputs":[]},{"type":"error","name":"OwnableInvalidOwner","inputs":[{"name":"owner","type":"address","internalType":"address"}]},{"type":"error","name":"OwnableUnauthorizedAccount","inputs":[{"name":"account","type":"address","internalType":"address"}]},{"type":"error","name":"ReentrancyGuardReentrantCall","inputs":[]},{"type":"error","name":"TransferFailed","inputs":[]}],"bytecode":{"object":"0x608060405260fa600255348015610014575f5ffd5b50604051611a25380380611a2583398181016040528101906100369190610272565b33600161005561004a61012160201b60201c565b61014a60201b60201c565b5f01819055505f73ffffffffffffffffffffffffffffffffffffffff168173ffffffffffffffffffffffffffffffffffffffff16036100cb575f6040517f1e4fbdf70000000000000000000000000000000000000000000000000000000081526004016100c291906102ac565b60405180910390fd5b6100da8161015360201b60201c565b508060015f6101000a81548173ffffffffffffffffffffffffffffffffffffffff021916908373ffffffffffffffffffffffffffffffffffffffff160217905550506102c5565b5f7f9b779b17422d0df92223018b32b4d1fa46e071723d6817e2486d003becc55f005f1b905090565b5f819050919050565b5f5f5f9054906101000a900473ffffffffffffffffffffffffffffffffffffffff169050815f5f6101000a81548173ffffffffffffffffffffffffffffffffffffffff021916908373ffffffffffffffffffffffffffffffffffffffff1602179055508173ffffffffffffffffffffffffffffffffffffffff168173ffffffffffffffffffffffffffffffffffffffff167f8be0079c531659141344cd1fd0a4f28419497f9722a3daafe3b4186f6b6457e060405160405180910390a35050565b5f5ffd5b5f73ffffffffffffffffffffffffffffffffffffffff82169050919050565b5f61024182610218565b9050919050565b61025181610237565b811461025b575f5ffd5b50565b5f8151905061026c81610248565b92915050565b5f6020828403121561028757610286610214565b5b5f6102948482850161025e565b91505092915050565b6102a681610237565b82525050565b5f6020820190506102bf5f83018461029d565b92915050565b611753806102d25f395ff3fe6080604052600436106100a6575f3560e01c80638da5cb5b116100635780638da5cb5b14610178578063c277f06d146101a2578063c70f5eaa146101cc578063de74e57b146101e8578063ed36c52f14610227578063f2fde38b1461024f576100a6565b806312e8e2c3146100aa57806326232a2e146100d2578063305a67a8146100fc578063476343ee14610124578063715018a61461013a57806382367b2d14610150575b5f5ffd5b3480156100b5575f5ffd5b506100d060048036038101906100cb91906112da565b610277565b005b3480156100dd575f5ffd5b506100e6610289565b6040516100f39190611314565b60405180910390f35b348015610107575f5ffd5b50610122600480360381019061011d91906112da565b61028f565b005b34801561012f575f5ffd5b50610138610432565b005b348015610145575f5ffd5b5061014e6104e8565b005b34801561015b575f5ffd5b506101766004803603810190610171919061132d565b6104fb565b005b348015610183575f5ffd5b5061018c610674565b60405161019991906113aa565b60405180910390f35b3480156101ad575f5ffd5b506101b661069b565b6040516101c391906113aa565b60405180910390f35b6101e660048036038101906101e191906112da565b6106c0565b005b3480156101f3575f5ffd5b5061020e600480360381019061020991906112da565b610bf9565b60405161021e94939291906113dd565b60405180910390f35b348015610232575f5ffd5b5061024d6004803603810190610248919061132d565b610c51565b005b34801561025a575f5ffd5b506102756004803603810190610270919061144a565b611005565b005b61027f611089565b8060028190555050565b60025481565b5f60035f8381526020019081526020015f206040518060800160405290815f820154815260200160018201548152602001600282015f9054906101000a900473ffffffffffffffffffffffffffffffffffffffff1673ffffffffffffffffffffffffffffffffffffffff1673ffffffffffffffffffffffffffffffffffffffff1681526020016002820160149054906101000a900460ff16151515158152505090503373ffffffffffffffffffffffffffffffffffffffff16816040015173ffffffffffffffffffffffffffffffffffffffff161461039a576040517f7c62d69f00000000000000000000000000000000000000000000000000000000815260040160405180910390fd5b80606001516103d5576040517f66cb03e900000000000000000000000000000000000000000000000000000000815260040160405180910390fd5b5f60035f8481526020019081526020015f2060020160146101000a81548160ff021916908315150217905550817f411aee90354c51b1b04cd563fcab2617142a9d50da19232d888547c8a1b7fd8a60405160405180910390a25050565b61043a611089565b5f4790505f610447610674565b73ffffffffffffffffffffffffffffffffffffffff168260405161046a906114a2565b5f6040518083038185875af1925050503d805f81146104a4576040519150601f19603f3d011682016040523d82523d5f602084013e6104a9565b606091505b50509050806104e4576040517f90b8ec1800000000000000000000000000000000000000000000000000000000815260040160405180910390fd5b5050565b6104f0611089565b6104f95f611110565b565b5f8103610533576040517ebfc92100000000000000000000000000000000000000000000000000000000815260040160405180910390fd5b5f60035f8481526020019081526020015f2090503373ffffffffffffffffffffffffffffffffffffffff16816002015f9054906101000a900473ffffffffffffffffffffffffffffffffffffffff1673ffffffffffffffffffffffffffffffffffffffff16146105cf576040517f7c62d69f00000000000000000000000000000000000000000000000000000000815260040160405180910390fd5b8060020160149054906101000a900460ff16610617576040517f66cb03e900000000000000000000000000000000000000000000000000000000815260040160405180910390fd5b8181600101819055503373ffffffffffffffffffffffffffffffffffffffff16837f9a6d4c4360cb37a21a1f9548532a5c27a4490667a584fb49b5772347631083e2846040516106679190611314565b60405180910390a3505050565b5f5f5f9054906101000a900473ffffffffffffffffffffffffffffffffffffffff16905090565b60015f9054906101000a900473ffffffffffffffffffffffffffffffffffffffff1681565b6106c86111d1565b5f60035f8381526020019081526020015f206040518060800160405290815f820154815260200160018201548152602001600282015f9054906101000a900473ffffffffffffffffffffffffffffffffffffffff1673ffffffffffffffffffffffffffffffffffffffff1673ffffffffffffffffffffffffffffffffffffffff1681526020016002820160149054906101000a900460ff161515151581525050905080606001516107a5576040517f66cb03e900000000000000000000000000000000000000000000000000000000815260040160405180910390fd5b80602001513410156107e3576040517fcd1c886700000000000000000000000000000000000000000000000000000000815260040160405180910390fd5b3373ffffffffffffffffffffffffffffffffffffffff16816040015173ffffffffffffffffffffffffffffffffffffffff160361084c576040517f50eadcb100000000000000000000000000000000000000000000000000000000815260040160405180910390fd5b5f60035f8481526020019081526020015f2060020160146101000a81548160ff0219169083151502179055505f612710600254836020015161088e91906114e3565b6108989190611551565b90505f5f90505f5f905060015f9054906101000a900473ffffffffffffffffffffffffffffffffffffffff1673ffffffffffffffffffffffffffffffffffffffff16632a55205a8686602001516040518363ffffffff1660e01b8152600401610902929190611581565b6040805180830381865afa92505050801561093b57506040513d601f19601f8201168201806040525081019061093891906115d0565b60015b156109495781925080935050505b5f8284866020015161095b919061160e565b610965919061160e565b905060015f9054906101000a900473ffffffffffffffffffffffffffffffffffffffff1673ffffffffffffffffffffffffffffffffffffffff166342842e0e866040015133896040518463ffffffff1660e01b81526004016109c993929190611641565b5f604051808303815f87803b1580156109e0575f5ffd5b505af11580156109f2573d5f5f3e3d5ffd5b505050505f83118015610a3157505f73ffffffffffffffffffffffffffffffffffffffff168273ffffffffffffffffffffffffffffffffffffffff1614155b15610ad7575f8273ffffffffffffffffffffffffffffffffffffffff1684604051610a5b906114a2565b5f6040518083038185875af1925050503d805f8114610a95576040519150601f19603f3d011682016040523d82523d5f602084013e610a9a565b606091505b5050905080610ad5576040517f90b8ec1800000000000000000000000000000000000000000000000000000000815260040160405180910390fd5b505b5f856040015173ffffffffffffffffffffffffffffffffffffffff1682604051610b00906114a2565b5f6040518083038185875af1925050503d805f8114610b3a576040519150601f19603f3d011682016040523d82523d5f602084013e610b3f565b606091505b5050905080610b7a576040517f90b8ec1800000000000000000000000000000000000000000000000000000000815260040160405180910390fd5b3373ffffffffffffffffffffffffffffffffffffffff16866040015173ffffffffffffffffffffffffffffffffffffffff16887f3b3ac2ab5b9e6e0795dc8546c191e4ac6e4bb6be5c3022ea49eeca4b346bf9408960200151604051610be09190611314565b60405180910390a4505050505050610bf66111f3565b50565b6003602052805f5260405f205f91509050805f015490806001015490806002015f9054906101000a900473ffffffffffffffffffffffffffffffffffffffff16908060020160149054906101000a900460ff16905084565b5f8103610c89576040517ebfc92100000000000000000000000000000000000000000000000000000000815260040160405180910390fd5b5f60015f9054906101000a900473ffffffffffffffffffffffffffffffffffffffff1690503373ffffffffffffffffffffffffffffffffffffffff168173ffffffffffffffffffffffffffffffffffffffff16636352211e856040518263ffffffff1660e01b8152600401610cfe9190611314565b602060405180830381865afa158015610d19573d5f5f3e3d5ffd5b505050506040513d601f19601f82011682018060405250810190610d3d9190611676565b73ffffffffffffffffffffffffffffffffffffffff1614610d8a576040517f8f0f029b00000000000000000000000000000000000000000000000000000000815260040160405180910390fd5b3073ffffffffffffffffffffffffffffffffffffffff168173ffffffffffffffffffffffffffffffffffffffff1663081812fc856040518263ffffffff1660e01b8152600401610dda9190611314565b602060405180830381865afa158015610df5573d5f5f3e3d5ffd5b505050506040513d601f19601f82011682018060405250810190610e199190611676565b73ffffffffffffffffffffffffffffffffffffffff1614158015610eb457508073ffffffffffffffffffffffffffffffffffffffff1663e985e9c533306040518363ffffffff1660e01b8152600401610e739291906116a1565b602060405180830381865afa158015610e8e573d5f5f3e3d5ffd5b505050506040513d601f19601f82011682018060405250810190610eb291906116f2565b155b15610eeb576040517fc19f17a900000000000000000000000000000000000000000000000000000000815260040160405180910390fd5b60405180608001604052808481526020018381526020013373ffffffffffffffffffffffffffffffffffffffff1681526020016001151581525060035f8581526020019081526020015f205f820151815f0155602082015181600101556040820151816002015f6101000a81548173ffffffffffffffffffffffffffffffffffffffff021916908373ffffffffffffffffffffffffffffffffffffffff16021790555060608201518160020160146101000a81548160ff0219169083151502179055509050503373ffffffffffffffffffffffffffffffffffffffff16837f9a6d4c4360cb37a21a1f9548532a5c27a4490667a584fb49b5772347631083e284604051610ff89190611314565b60405180910390a3505050565b61100d611089565b5f73ffffffffffffffffffffffffffffffffffffffff168173ffffffffffffffffffffffffffffffffffffffff160361107d575f6040517f1e4fbdf700000000000000000000000000000000000000000000000000000000815260040161107491906113aa565b60405180910390fd5b61108681611110565b50565b61109161120d565b73ffffffffffffffffffffffffffffffffffffffff166110af610674565b73ffffffffffffffffffffffffffffffffffffffff161461110e576110d261120d565b6040517f118cdaa700000000000000000000000000000000000000000000000000000000815260040161110591906113aa565b60405180910390fd5b565b5f5f5f9054906101000a900473ffffffffffffffffffffffffffffffffffffffff169050815f5f6101000a81548173ffffffffffffffffffffffffffffffffffffffff021916908373ffffffffffffffffffffffffffffffffffffffff1602179055508173ffffffffffffffffffffffffffffffffffffffff168173ffffffffffffffffffffffffffffffffffffffff167f8be0079c531659141344cd1fd0a4f28419497f9722a3daafe3b4186f6b6457e060405160405180910390a35050565b6111d9611214565b60026111eb6111e6611255565b61127e565b5f0181905550565b6001611205611200611255565b61127e565b5f0181905550565b5f33905090565b61121c611287565b15611253576040517f3ee5aeb500000000000000000000000000000000000000000000000000000000815260040160405180910390fd5b565b5f7f9b779b17422d0df92223018b32b4d1fa46e071723d6817e2486d003becc55f005f1b905090565b5f819050919050565b5f600261129a611295611255565b61127e565b5f015414905090565b5f5ffd5b5f819050919050565b6112b9816112a7565b81146112c3575f5ffd5b50565b5f813590506112d4816112b0565b92915050565b5f602082840312156112ef576112ee6112a3565b5b5f6112fc848285016112c6565b91505092915050565b61130e816112a7565b82525050565b5f6020820190506113275f830184611305565b92915050565b5f5f60408385031215611343576113426112a3565b5b5f611350858286016112c6565b9250506020611361858286016112c6565b9150509250929050565b5f73ffffffffffffffffffffffffffffffffffffffff82169050919050565b5f6113948261136b565b9050919050565b6113a48161138a565b82525050565b5f6020820190506113bd5f83018461139b565b92915050565b5f8115159050919050565b6113d7816113c3565b82525050565b5f6080820190506113f05f830187611305565b6113fd6020830186611305565b61140a604083018561139b565b61141760608301846113ce565b95945050505050565b6114298161138a565b8114611433575f5ffd5b50565b5f8135905061144481611420565b92915050565b5f6020828403121561145f5761145e6112a3565b5b5f61146c84828501611436565b91505092915050565b5f81905092915050565b50565b5f61148d5f83611475565b91506114988261147f565b5f82019050919050565b5f6114ac82611482565b9150819050919050565b7f4e487b71000000000000000000000000000000000000000000000000000000005f52601160045260245ffd5b5f6114ed826112a7565b91506114f8836112a7565b9250828202611506816112a7565b9150828204841483151761151d5761151c6114b6565b5b5092915050565b7f4e487b71000000000000000000000000000000000000000000000000000000005f52601260045260245ffd5b5f61155b826112a7565b9150611566836112a7565b92508261157657611575611524565b5b828204905092915050565b5f6040820190506115945f830185611305565b6115a16020830184611305565b9392505050565b5f815190506115b681611420565b92915050565b5f815190506115ca816112b0565b92915050565b5f5f604083850312156115e6576115e56112a3565b5b5f6115f3858286016115a8565b9250506020611604858286016115bc565b9150509250929050565b5f611618826112a7565b9150611623836112a7565b925082820390508181111561163b5761163a6114b6565b5b92915050565b5f6060820190506116545f83018661139b565b611661602083018561139b565b61166e6040830184611305565b949350505050565b5f6020828403121561168b5761168a6112a3565b5b5f611698848285016115a8565b91505092915050565b5f6040820190506116b45f83018561139b565b6116c1602083018461139b565b9392505050565b6116d1816113c3565b81146116db575f5ffd5b50565b5f815190506116ec816116c8565b92915050565b5f60208284031215611707576117066112a3565b5b5f611714848285016116de565b9150509291505056fea2646970667358221220fbd7b9e266a44eec46af2e2b1edd2fd7f91b3e5137168348314525fe3b411d9f64736f6c634300081c0033","linkReferences":{}},"methodIdentifiers":{"buyCard(uint256)":"c70f5eaa","cancelListing(uint256)":"305a67a8","listCard(uint256,uint256)":"ed36c52f","listings(uint256)":"de74e57b","owner()":"8da5cb5b","platformFee()":"26232a2e","pokemonCardAddress()":"c277f06d","renounceOwnership()":"715018a6","setPlatformFee(uint256)":"12e8e2c3","transferOwnership(address)":"f2fde38b","updatePrice(uint256,uint256)":"82367b2d","withdrawFees()":"476343ee"},"id":46}