{"abi":[{"type":"constructor","inputs":[],"stateMutability":"nonpayable"},{"type":"function","name":"DEFAULT_ROYALTY_FEE","inputs":[],"outputs":[{"name":"","type":"uint96","internalType":"uint96"}],"stateMutability":"view"},{"type":"function","name":"approve","inputs":[{"name":"to","type":"address","internalType":"address"},{"name":"tokenId","type":"uint256","internalType":"uint256"}],"outputs":[],"stateMutability":"nonpayable"},{"type":"function","name":"balanceOf","inputs":[{"name":"owner","type":"address","internalType":"address"}],"outputs":[{"name":"","type":"uint256","internalType":"uint256"}],"stateMutability":"view"},{"type":"function","name":"batchMintCard","inputs":[{"name":"to","type":"address[]","internalType":"address[]"},{"name":"tokenURIs","type":"string[]","internalType":"string[]"},{"name":"data","type":"tuple[]","internalType":"struct PokemonCard.PokemonCardData[]","components":[{"name":"name","type":"string","internalType":"string"},{"name":"rarity","type":"string","internalType":"string"},{"name":"series","type":"uint256","internalType":"uint256"},{"name":"cardNumber","type":"uint256","internalType":"uint256"}]}],"outputs":[],"stateMutability":"nonpayable"},{"type":"function","name":"cardData","inputs":[{"name":"","type":"uint256","internalType":"uint256"}],"outputs":[{"name":"name","type":"string","internalType":"string"},{"name":"rarity","type":"string","internalType":"string"},{"name":"series","type":"uint256","internalType":"uint256"},{"name":"cardNumber","type":"uint256","internalType":"uint256"}],"stateMutability":"view"},{"type":"function","name":"getApproved","inputs":[{"name":"tokenId","type":"uint256","internalType":"uint256"}],"outputs":[{"name":"","type":"address","internalType":"address"}],"stateMutability":"view"},{"type":"function","name":"isApprovedForAll","inputs":[{"name":"owner","type":"address","internalType":"address"},{"name":"operator","type":"address","internalType":"address"}],"outputs":[{"name":"","type":"bool","internalType":"bool"}],"stateMutability":"view"},{"type":"function","name":"mintCard","inputs":[{"name":"to","type":"address","internalType":"address"},{"name":"tokenURI","type":"string","internalType":"string"},{"name":"data","type":"tuple","internalType":"struct PokemonCard.PokemonCardData","components":[{"name":"name","type":"string","internalType":"string"},{"name":"rarity","type":"string","internalType":"string"},{"name":"series","type":"uint256","internalType":"uint256"},{"name":"cardNumber","type":"uint256","internalType":"uint256"}]}],"outputs":[],"stateMutability":"nonpayable"},{"type":"function","name":"name","inputs":[],"outputs":[{"name":"","type":"string","internalType":"string"}],"stateMutability":"view"},{"type":"function","name":"owner","inputs":[],"outputs":[{"name":"","type":"address","internalType":"address"}],"stateMutability":"view"},{"type":"function","name":"ownerOf","inputs":[{"name":"tokenId","type":"uint256","internalType":"uint256"}],"outputs":[{"name":"","type":"address","internalType":"address"}],"stateMutability":"view"},{"type":"function","name":"renounceOwnership","inputs":[],"outputs":[],"stateMutability":"nonpayable"},{"type":"function","name":"royaltyInfo","inputs":[{"name":"tokenId","type":"uint256","internalType":"uint256"},{"name":"salePrice","type":"uint256","internalType":"uint256"}],"outputs":[{"name":"receiver","type":"address","internalType":"address"},{"name":"amount","type":"uint256","internalType":"uint256"}],"stateMutability":"view"},{"type":"function","name":"safeTransferFrom","inputs":[{"name":"from","type":"address","internalType":"address"},{"name":"to","type":"address","internalType":"address"},{"name":"tokenId","type":"uint256","internalType":"uint256"}],"outputs":[],"stateMutability":"nonpayable"},{"type":"function","name":"safeTransferFrom","inputs":[{"name":"from","type":"address","internalType":"address"},{"name":"to","type":"address","internalType":"address"},{"name":"tokenId","type":"uint256","internalType":"uint256"},{"name":"data","type":"bytes","internalType":"bytes"}],"outputs":[],"stateMutability":"nonpayable"},{"type":"function","name":"setApprovalForAll","inputs":[{"name":"operator","type":"address","internalType":"address"},{"name":"approved","type":"bool","internalType":"bool"}],"outputs":[],"stateMutability":"nonpayable"},{"type":"function","name":"setDefaultRoyalty","inputs":[{"name":"receiver","type":"address","internalType":"address"},{"name":"feeNumerator","type":"uint96","internalType":"uint96"}],"outputs":[],"stateMutability":"nonpayable"},{"type":"function","name":"setTokenRoyalty","inputs":[{"name":"tokenId","type":"uint256","internalType":"uint256"},{"name":"receiver","type":"address","internalType":"address"},{"name":"feeNumerator","type":"uint96","internalType":"uint96"}],"outputs":[],"stateMutability":"nonpayable"},{"type":"function","name":"supportsInterface","inputs":[{"name":"interfaceId","type":"bytes4","internalType":"bytes4"}],"outputs":[{"name":"","type":"bool","internalType":"bool"}],"stateMutability":"view"},{"type":"function","name":"symbol","inputs":[],"outputs":[{"name":"","type":"string","internalType":"string"}],"stateMutability":"view"},{"type":"function","name":"tokenURI","inputs":[{"name":"tokenId","type":"uint256","internalType":"uint256"}],"outputs":[{"name":"","type":"string","internalType":"string"}],"stateMutability":"view"},{"type":"function","name":"transferFrom","inputs":[{"name":"from","type":"address","internalType":"address"},{"name":"to","type":"address","internalType":"address"},{"name":"tokenId","type":"uint256","internalType":"uint256"}],"outputs":[],"stateMutability":"nonpayable"},{"type":"function","name":"transferOwnership","inputs":[{"name":"newOwner","type":"address","internalType":"address"}],"outputs":[],"stateMutability":"nonpayable"},{"type":"event","name":"Approval","inputs":[{"name":"owner","type":"address","indexed":true,"internalType":"address"},{"name":"approved","type":"address","indexed":true,"internalType":"address"},{"name":"tokenId","type":"uint256","indexed":true,"internalType":"uint256"}],"anonymous":false},{"type":"event","name":"ApprovalForAll","inputs":[{"name":"owner","type":"address","indexed":true,"internalType":"address"},{"name":"operator","type":"address","indexed":true,"internalType":"address"},{"name":"approved","type":"bool","indexed":false,"internalType":"bool"}],"anonymous":false},{"type":"event","name":"BatchMetadataUpdate","inputs":[{"name":"_fromTokenId","type":"uint256","indexed":false,"internalType":"uint256"},{"name":"_toTokenId","type":"uint256","indexed":false,"internalType":"uint256"}],"anonymous":false},{"type":"event","name":"CardMinted","inputs":[{"name":"tokenId","type":"uint256","indexed":true,"internalType":"uint256"},{"name":"to","type":"address","indexed":true,"internalType":"address"},{"name":"name","type":"string","indexed":false,"internalType":"string"},{"name":"rarity","type":"string","indexed":false,"internalType":"string"}],"anonymous":false},{"type":"event","name":"MetadataUpdate","inputs":[{"name":"_tokenId","type":"uint256","indexed":false,"internalType":"uint256"}],"anonymous":false},{"type":"event","name":"OwnershipTransferred","inputs":[{"name":"previousOwner","type":"address","indexed":true,"internalType":"address"},{"name":"newOwner","type":"address","indexed":true,"internalType":"address"}],"anonymous":false},{"type":"event","name":"Transfer","inputs":[{"name":"from","type":"address","indexed":true,"internalType":"address"},{"name":"to","type":"address","indexed":true,"internalType":"address"},{"name":"tokenId","type":"uint256","indexed":true,"internalType":"uint256"}],"anonymous":false},{"type":"error","name":"ERC2981InvalidDefaultRoyalty","inputs":[{"name":"numerator","type":"uint256","internalType":"uint256"},{"name":"denominator","type":"uint256","internalType":"uint256"}]},{"type":"error","name":"ERC2981InvalidDefaultRoyaltyReceiver","inputs":[{"name":"receiver","type":"address","internalType":"address"}]},{"type":"error","name":"ERC2981InvalidTokenRoyalty","inputs":[{"name":"tokenId","type":"uint256","internalType":"uint256"},{"name":"numerator","type":"uint256","internalType":"uint256"},{"name":"denominator","type":"uint256","internalType":"uint256"}]},{"type":"error","name":"ERC2981InvalidTokenRoyaltyReceiver","inputs":[{"name":"tokenId","type":"uint256","internalType":"uint256"},{"name":"receiver","type":"address","internalType":"address"}]},{"type":"error","name":"ERC721IncorrectOwner","inputs":[{"name":"sender","type":"address","internalType":"address"},{"name":"tokenId","type":"uint256","internalType":"uint256"},{"name":"owner","type":"address","internalType":"address"}]},{"type":"error","name":"ERC721InsufficientApproval","inputs":[{"name":"operator","type":"address","internalType":"address"},{"name":"tokenId","type":"uint256","internalType":"uint256"}]},{"type":"error","name":"ERC721InvalidApprover","inputs":[{"name":"approver","type":"address","internalType":"address"}]},{"type":"error","name":"ERC721InvalidOperator","inputs":[{"name":"operator","type":"address","internalType":"address"}]},{"type":"error","name":"ERC721InvalidOwner","inputs":[{"name":"owner","type":"address","internalType":"address"}]},{"type":"error","name":"ERC721InvalidReceiver","inputs":[{"name":"receiver","type":"address","internalType":"address"}]},{"type":"error","name":"ERC721InvalidSender","inputs":[{"name":"sender","type":"address","internalType":"address"}]},{"type":"error","name":"ERC721NonexistentToken","inputs":[{"name":"tokenId","type":"uint256","internalType":"uint256"}]},{"type":"error","name":"NotOwner","inputs":[]},{"type":"error","name":"OwnableInvalidOwner","inputs":[{"name":"owner","type":"address","internalType":"address"}]},{"type":"error","name":"OwnableUnauthorizedAccount","inputs":[{"name":"account","type":"address","internalType":"address"}]}],"bytecode":{"object":"0x608060405234801561000f575f5ffd5b50336040518060400160405280600b81526020017f506f6b656d6f6e436172640000000000000000000000000000000000000000008152506040518060400160405280600381526020017f504b430000000000000000000000000000000000000000000000000000000000815250815f908161008b91906105df565b50806001908161009b91906105df565b5050505f73ffffffffffffffffffffffffffffffffffffffff168173ffffffffffffffffffffffffffffffffffffffff160361010e575f6040517f1e4fbdf700000000000000000000000000000000000000000000000000000000815260040161010591906106ed565b60405180910390fd5b61011d8161013560201b60201c565b50610130336101f46101f860201b60201c565b610783565b5f60095f9054906101000a900473ffffffffffffffffffffffffffffffffffffffff1690508160095f6101000a81548173ffffffffffffffffffffffffffffffffffffffff021916908373ffffffffffffffffffffffffffffffffffffffff1602179055508173ffffffffffffffffffffffffffffffffffffffff168173ffffffffffffffffffffffffffffffffffffffff167f8be0079c531659141344cd1fd0a4f28419497f9722a3daafe3b4186f6b6457e060405160405180910390a35050565b5f61020761039960201b60201c565b6bffffffffffffffffffffffff16905080826bffffffffffffffffffffffff16111561026c5781816040517f6f483d0900000000000000000000000000000000000000000000000000000000815260040161026392919061075c565b60405180910390fd5b5f73ffffffffffffffffffffffffffffffffffffffff168373ffffffffffffffffffffffffffffffffffffffff16036102dc575f6040517fb6d9900a0000000000000000000000000000000000000000000000000000000081526004016102d391906106ed565b60405180910390fd5b60405180604001604052808473ffffffffffffffffffffffffffffffffffffffff168152602001836bffffffffffffffffffffffff1681525060075f820151815f015f6101000a81548173ffffffffffffffffffffffffffffffffffffffff021916908373ffffffffffffffffffffffffffffffffffffffff1602179055506020820151815f0160146101000a8154816bffffffffffffffffffffffff02191690836bffffffffffffffffffffffff160217905550905050505050565b5f612710905090565b5f81519050919050565b7f4e487b71000000000000000000000000000000000000000000000000000000005f52604160045260245ffd5b7f4e487b71000000000000000000000000000000000000000000000000000000005f52602260045260245ffd5b5f600282049050600182168061041d57607f821691505b6020821081036104305761042f6103d9565b5b50919050565b5f819050815f5260205f209050919050565b5f6020601f8301049050919050565b5f82821b905092915050565b5f600883026104927fffffffffffffffffffffffffffffffffffffffffffffffffffffffffffffffff82610457565b61049c8683610457565b95508019841693508086168417925050509392505050565b5f819050919050565b5f819050919050565b5f6104e06104db6104d6846104b4565b6104bd565b6104b4565b9050919050565b5f819050919050565b6104f9836104c6565b61050d610505826104e7565b848454610463565b825550505050565b5f5f905090565b610524610515565b61052f8184846104f0565b505050565b5b81811015610552576105475f8261051c565b600181019050610535565b5050565b601f8211156105975761056881610436565b61057184610448565b81016020851015610580578190505b61059461058c85610448565b830182610534565b50505b505050565b5f82821c905092915050565b5f6105b75f198460080261059c565b1980831691505092915050565b5f6105cf83836105a8565b9150826002028217905092915050565b6105e8826103a2565b67ffffffffffffffff811115610601576106006103ac565b5b61060b8254610406565b610616828285610556565b5f60209050601f831160018114610647575f8415610635578287015190505b61063f85826105c4565b8655506106a6565b601f19841661065586610436565b5f5b8281101561067c57848901518255600182019150602085019450602081019050610657565b868310156106995784890151610695601f8916826105a8565b8355505b6001600288020188555050505b505050505050565b5f73ffffffffffffffffffffffffffffffffffffffff82169050919050565b5f6106d7826106ae565b9050919050565b6106e7816106cd565b82525050565b5f6020820190506107005f8301846106de565b92915050565b5f6bffffffffffffffffffffffff82169050919050565b5f61073761073261072d84610706565b6104bd565b6104b4565b9050919050565b6107478161071d565b82525050565b610756816104b4565b82525050565b5f60408201905061076f5f83018561073e565b61077c602083018461074d565b9392505050565b613793806107905f395ff3fe608060405234801561000f575f5ffd5b506004361061014b575f3560e01c80636352211e116100c1578063b88d4fde1161007a578063b88d4fde14610384578063c87b56dd146103a0578063d3e6dff0146103d0578063e985e9c5146103ee578063f2fde38b1461041e578063fea9d9111461043a5761014b565b80636352211e146102c257806370a08231146102f2578063715018a6146103225780638da5cb5b1461032c57806395d89b411461034a578063a22cb465146103685761014b565b806323b872dd1161011357806323b872dd146102055780632a55205a146102215780632b40a4db1461025257806342842e0e1461026e5780635944c7531461028a57806360004b7d146102a65761014b565b806301ffc9a71461014f57806304634d8d1461017f57806306fdde031461019b578063081812fc146101b9578063095ea7b3146101e9575b5f5ffd5b610169600480360381019061016491906124e8565b61046d565b604051610176919061252d565b60405180910390f35b610199600480360381019061019491906125e1565b61047e565b005b6101a3610494565b6040516101b0919061268f565b60405180910390f35b6101d360048036038101906101ce91906126e2565b610523565b6040516101e0919061271c565b60405180910390f35b61020360048036038101906101fe9190612735565b61053e565b005b61021f600480360381019061021a9190612773565b610554565b005b61023b600480360381019061023691906127c3565b610653565b604051610249929190612810565b60405180910390f35b61026c60048036038101906102679190612a18565b610775565b005b61028860048036038101906102839190612773565b61085b565b005b6102a4600480360381019061029f9190612aa0565b61087a565b005b6102c060048036038101906102bb9190612d70565b610892565b005b6102dc60048036038101906102d791906126e2565b610a81565b6040516102e9919061271c565b60405180910390f35b61030c60048036038101906103079190612e14565b610a92565b6040516103199190612e3f565b60405180910390f35b61032a610b48565b005b610334610b5b565b604051610341919061271c565b60405180910390f35b610352610b83565b60405161035f919061268f565b60405180910390f35b610382600480360381019061037d9190612e82565b610c13565b005b61039e60048036038101906103999190612f5e565b610c29565b005b6103ba60048036038101906103b591906126e2565b610c4e565b6040516103c7919061268f565b60405180910390f35b6103d8610cca565b6040516103e59190612fed565b60405180910390f35b61040860048036038101906104039190613006565b610cd0565b604051610415919061252d565b60405180910390f35b61043860048036038101906104339190612e14565b610d5e565b005b610454600480360381019061044f91906126e2565b610de2565b6040516104649493929190613044565b60405180910390f35b5f61047782610f1a565b9050919050565b610486610f93565b610490828261101a565b5050565b60605f80546104a2906130c2565b80601f01602080910402602001604051908101604052809291908181526020018280546104ce906130c2565b80156105195780601f106104f057610100808354040283529160200191610519565b820191905f5260205f20905b8154815290600101906020018083116104fc57829003601f168201915b5050505050905090565b5f61052d826111b5565b506105378261123b565b9050919050565b610550828261054b611274565b61127b565b5050565b5f73ffffffffffffffffffffffffffffffffffffffff168273ffffffffffffffffffffffffffffffffffffffff16036105c4575f6040517f64a0ae920000000000000000000000000000000000000000000000000000000081526004016105bb919061271c565b60405180910390fd5b5f6105d783836105d2611274565b61128d565b90508373ffffffffffffffffffffffffffffffffffffffff168173ffffffffffffffffffffffffffffffffffffffff161461064d578382826040517f64283d7b000000000000000000000000000000000000000000000000000000008152600401610644939291906130f2565b60405180910390fd5b50505050565b5f5f5f60085f8681526020019081526020015f2090505f815f015f9054906101000a900473ffffffffffffffffffffffffffffffffffffffff1690505f825f0160149054906101000a90046bffffffffffffffffffffffff1690505f73ffffffffffffffffffffffffffffffffffffffff168273ffffffffffffffffffffffffffffffffffffffff16036107275760075f015f9054906101000a900473ffffffffffffffffffffffffffffffffffffffff16915060075f0160149054906101000a90046bffffffffffffffffffffffff1690505b5f610730611498565b6bffffffffffffffffffffffff16826bffffffffffffffffffffffff16886107589190613154565b61076291906131c2565b9050828195509550505050509250929050565b61077d610f93565b5f600a5f815480929190610790906131f2565b9190505590506107a084826114a1565b6107aa81846114be565b81600b5f8381526020019081526020015f205f820151815f0190816107cf91906133d9565b5060208201518160010190816107e591906133d9565b5060408201518160020155606082015181600301559050508373ffffffffffffffffffffffffffffffffffffffff16817f09394dacdfb781605e27c4bf5b7bf8a7e3abacb7086d4d35ce8f51182407b0f1845f0151856020015160405161084d9291906134a8565b60405180910390a350505050565b61087583838360405180602001604052805f815250610c29565b505050565b610882610f93565b61088d838383611518565b505050565b61089a610f93565b815183511480156108ac575080518351145b6108eb576040517f08c379a00000000000000000000000000000000000000000000000000000000081526004016108e290613527565b60405180910390fd5b5f5f90505b8351811015610a7b575f600a5f81548092919061090c906131f2565b91905055905061093685838151811061092857610927613545565b5b6020026020010151826114a1565b61095a8185848151811061094d5761094c613545565b5b60200260200101516114be565b82828151811061096d5761096c613545565b5b6020026020010151600b5f8381526020019081526020015f205f820151815f01908161099991906133d9565b5060208201518160010190816109af91906133d9565b5060408201518160020155606082015181600301559050508482815181106109da576109d9613545565b5b602002602001015173ffffffffffffffffffffffffffffffffffffffff16817f09394dacdfb781605e27c4bf5b7bf8a7e3abacb7086d4d35ce8f51182407b0f1858581518110610a2d57610a2c613545565b5b60200260200101515f0151868681518110610a4b57610a4a613545565b5b602002602001015160200151604051610a659291906134a8565b60405180910390a35080806001019150506108f0565b50505050565b5f610a8b826111b5565b9050919050565b5f5f73ffffffffffffffffffffffffffffffffffffffff168273ffffffffffffffffffffffffffffffffffffffff1603610b03575f6040517f89c62b64000000000000000000000000000000000000000000000000000000008152600401610afa919061271c565b60405180910390fd5b60035f8373ffffffffffffffffffffffffffffffffffffffff1673ffffffffffffffffffffffffffffffffffffffff1681526020019081526020015f20549050919050565b610b50610f93565b610b595f6116c7565b565b5f60095f9054906101000a900473ffffffffffffffffffffffffffffffffffffffff16905090565b606060018054610b92906130c2565b80601f0160208091040260200160405190810160405280929190818152602001828054610bbe906130c2565b8015610c095780601f10610be057610100808354040283529160200191610c09565b820191905f5260205f20905b815481529060010190602001808311610bec57829003601f168201915b5050505050905090565b610c25610c1e611274565b838361178a565b5050565b610c34848484610554565b610c48610c3f611274565b85858585611963565b50505050565b6060610c59826111b5565b505f610c63611b0f565b90505f610c6f84611b25565b90505f825103610c83578092505050610cc5565b5f81511115610cb7578181604051602001610c9f9291906135ac565b60405160208183030381529060405292505050610cc5565b610cc084611bc6565b925050505b919050565b6101f481565b5f60055f8473ffffffffffffffffffffffffffffffffffffffff1673ffffffffffffffffffffffffffffffffffffffff1681526020019081526020015f205f8373ffffffffffffffffffffffffffffffffffffffff1673ffffffffffffffffffffffffffffffffffffffff1681526020019081526020015f205f9054906101000a900460ff16905092915050565b610d66610f93565b5f73ffffffffffffffffffffffffffffffffffffffff168173ffffffffffffffffffffffffffffffffffffffff1603610dd6575f6040517f1e4fbdf7000000000000000000000000000000000000000000000000000000008152600401610dcd919061271c565b60405180910390fd5b610ddf816116c7565b50565b600b602052805f5260405f205f91509050805f018054610e01906130c2565b80601f0160208091040260200160405190810160405280929190818152602001828054610e2d906130c2565b8015610e785780601f10610e4f57610100808354040283529160200191610e78565b820191905f5260205f20905b815481529060010190602001808311610e5b57829003601f168201915b505050505090806001018054610e8d906130c2565b80601f0160208091040260200160405190810160405280929190818152602001828054610eb9906130c2565b8015610f045780601f10610edb57610100808354040283529160200191610f04565b820191905f5260205f20905b815481529060010190602001808311610ee757829003601f168201915b5050505050908060020154908060030154905084565b5f7f2a55205a000000000000000000000000000000000000000000000000000000007bffffffffffffffffffffffffffffffffffffffffffffffffffffffff1916827bffffffffffffffffffffffffffffffffffffffffffffffffffffffff19161480610f8c5750610f8b82611c2c565b5b9050919050565b610f9b611274565b73ffffffffffffffffffffffffffffffffffffffff16610fb9610b5b565b73ffffffffffffffffffffffffffffffffffffffff161461101857610fdc611274565b6040517f118cdaa700000000000000000000000000000000000000000000000000000000815260040161100f919061271c565b60405180910390fd5b565b5f611023611498565b6bffffffffffffffffffffffff16905080826bffffffffffffffffffffffff1611156110885781816040517f6f483d0900000000000000000000000000000000000000000000000000000000815260040161107f9291906135ff565b60405180910390fd5b5f73ffffffffffffffffffffffffffffffffffffffff168373ffffffffffffffffffffffffffffffffffffffff16036110f8575f6040517fb6d9900a0000000000000000000000000000000000000000000000000000000081526004016110ef919061271c565b60405180910390fd5b60405180604001604052808473ffffffffffffffffffffffffffffffffffffffff168152602001836bffffffffffffffffffffffff1681525060075f820151815f015f6101000a81548173ffffffffffffffffffffffffffffffffffffffff021916908373ffffffffffffffffffffffffffffffffffffffff1602179055506020820151815f0160146101000a8154816bffffffffffffffffffffffff02191690836bffffffffffffffffffffffff160217905550905050505050565b5f5f6111c083611c8c565b90505f73ffffffffffffffffffffffffffffffffffffffff168173ffffffffffffffffffffffffffffffffffffffff160361123257826040517f7e2732890000000000000000000000000000000000000000000000000000000081526004016112299190612e3f565b60405180910390fd5b80915050919050565b5f60045f8381526020019081526020015f205f9054906101000a900473ffffffffffffffffffffffffffffffffffffffff169050919050565b5f33905090565b6112888383836001611cc5565b505050565b5f5f61129884611c8c565b90505f73ffffffffffffffffffffffffffffffffffffffff168373ffffffffffffffffffffffffffffffffffffffff16146112d9576112d8818486611e84565b5b5f73ffffffffffffffffffffffffffffffffffffffff168173ffffffffffffffffffffffffffffffffffffffff1614611364576113185f855f5f611cc5565b600160035f8373ffffffffffffffffffffffffffffffffffffffff1673ffffffffffffffffffffffffffffffffffffffff1681526020019081526020015f205f82825403925050819055505b5f73ffffffffffffffffffffffffffffffffffffffff168573ffffffffffffffffffffffffffffffffffffffff16146113e357600160035f8773ffffffffffffffffffffffffffffffffffffffff1673ffffffffffffffffffffffffffffffffffffffff1681526020019081526020015f205f82825401925050819055505b8460025f8681526020019081526020015f205f6101000a81548173ffffffffffffffffffffffffffffffffffffffff021916908373ffffffffffffffffffffffffffffffffffffffff160217905550838573ffffffffffffffffffffffffffffffffffffffff168273ffffffffffffffffffffffffffffffffffffffff167fddf252ad1be2c89b69c2b068fc378daa952ba7f163c4a11628f55a4df523b3ef60405160405180910390a4809150509392505050565b5f612710905090565b6114ba828260405180602001604052805f815250611f47565b5050565b8060065f8481526020019081526020015f2090816114dc91906133d9565b507ff8e1a15aba9398e019f0b49df1a4fde98ee17ae345cb5f6b5e2c27f5033e8ce78260405161150c9190612e3f565b60405180910390a15050565b5f611521611498565b6bffffffffffffffffffffffff16905080826bffffffffffffffffffffffff161115611588578382826040517fdfd1fc1b00000000000000000000000000000000000000000000000000000000815260040161157f93929190613626565b60405180910390fd5b5f73ffffffffffffffffffffffffffffffffffffffff168373ffffffffffffffffffffffffffffffffffffffff16036115fa57835f6040517f969f08520000000000000000000000000000000000000000000000000000000081526004016115f192919061365b565b60405180910390fd5b60405180604001604052808473ffffffffffffffffffffffffffffffffffffffff168152602001836bffffffffffffffffffffffff1681525060085f8681526020019081526020015f205f820151815f015f6101000a81548173ffffffffffffffffffffffffffffffffffffffff021916908373ffffffffffffffffffffffffffffffffffffffff1602179055506020820151815f0160146101000a8154816bffffffffffffffffffffffff02191690836bffffffffffffffffffffffff16021790555090505050505050565b5f60095f9054906101000a900473ffffffffffffffffffffffffffffffffffffffff1690508160095f6101000a81548173ffffffffffffffffffffffffffffffffffffffff021916908373ffffffffffffffffffffffffffffffffffffffff1602179055508173ffffffffffffffffffffffffffffffffffffffff168173ffffffffffffffffffffffffffffffffffffffff167f8be0079c531659141344cd1fd0a4f28419497f9722a3daafe3b4186f6b6457e060405160405180910390a35050565b5f73ffffffffffffffffffffffffffffffffffffffff168373ffffffffffffffffffffffffffffffffffffffff16036117fa575f6040517fa9fbf51f0000000000000000000000000000000000000000000000000000000081526004016117f1919061271c565b60405180910390fd5b5f73ffffffffffffffffffffffffffffffffffffffff168273ffffffffffffffffffffffffffffffffffffffff160361186a57816040517f5b08ba18000000000000000000000000000000000000000000000000000000008152600401611861919061271c565b60405180910390fd5b8060055f8573ffffffffffffffffffffffffffffffffffffffff1673ffffffffffffffffffffffffffffffffffffffff1681526020019081526020015f205f8473ffffffffffffffffffffffffffffffffffffffff1673ffffffffffffffffffffffffffffffffffffffff1681526020019081526020015f205f6101000a81548160ff0219169083151502179055508173ffffffffffffffffffffffffffffffffffffffff168373ffffffffffffffffffffffffffffffffffffffff167f17307eab39ab6107e8899845ad3d59bd9653f200f220920489ca2b5937696c3183604051611956919061252d565b60405180910390a3505050565b5f8373ffffffffffffffffffffffffffffffffffffffff163b1115611b08578273ffffffffffffffffffffffffffffffffffffffff1663150b7a02868685856040518563ffffffff1660e01b81526004016119c194939291906136d4565b6020604051808303815f875af19250505080156119fc57506040513d601f19601f820116820180604052508101906119f99190613732565b60015b611a7d573d805f8114611a2a576040519150601f19603f3d011682016040523d82523d5f602084013e611a2f565b606091505b505f815103611a7557836040517f64a0ae92000000000000000000000000000000000000000000000000000000008152600401611a6c919061271c565b60405180910390fd5b805160208201fd5b63150b7a0260e01b7bffffffffffffffffffffffffffffffffffffffffffffffffffffffff1916817bffffffffffffffffffffffffffffffffffffffffffffffffffffffff191614611b0657836040517f64a0ae92000000000000000000000000000000000000000000000000000000008152600401611afd919061271c565b60405180910390fd5b505b5050505050565b606060405180602001604052805f815250905090565b606060065f8381526020019081526020015f208054611b43906130c2565b80601f0160208091040260200160405190810160405280929190818152602001828054611b6f906130c2565b8015611bba5780601f10611b9157610100808354040283529160200191611bba565b820191905f5260205f20905b815481529060010190602001808311611b9d57829003601f168201915b50505050509050919050565b6060611bd1826111b5565b505f611bdb611b0f565b90505f815111611bf95760405180602001604052805f815250611c24565b80611c0384611f6a565b604051602001611c149291906135ac565b6040516020818303038152906040525b915050919050565b5f634906490660e01b7bffffffffffffffffffffffffffffffffffffffffffffffffffffffff1916827bffffffffffffffffffffffffffffffffffffffffffffffffffffffff19161480611c855750611c8482612034565b5b9050919050565b5f60025f8381526020019081526020015f205f9054906101000a900473ffffffffffffffffffffffffffffffffffffffff169050919050565b8080611cfd57505f73ffffffffffffffffffffffffffffffffffffffff168273ffffffffffffffffffffffffffffffffffffffff1614155b15611e2f575f611d0c846111b5565b90505f73ffffffffffffffffffffffffffffffffffffffff168373ffffffffffffffffffffffffffffffffffffffff1614158015611d7657508273ffffffffffffffffffffffffffffffffffffffff168173ffffffffffffffffffffffffffffffffffffffff1614155b8015611d895750611d878184610cd0565b155b15611dcb57826040517fa9fbf51f000000000000000000000000000000000000000000000000000000008152600401611dc2919061271c565b60405180910390fd5b8115611e2d57838573ffffffffffffffffffffffffffffffffffffffff168273ffffffffffffffffffffffffffffffffffffffff167f8c5be1e5ebec7d5bd14f71427d1e84f3dd0314c0f7b2291e5b200ac8c7c3b92560405160405180910390a45b505b8360045f8581526020019081526020015f205f6101000a81548173ffffffffffffffffffffffffffffffffffffffff021916908373ffffffffffffffffffffffffffffffffffffffff16021790555050505050565b611e8f838383612115565b611f42575f73ffffffffffffffffffffffffffffffffffffffff168373ffffffffffffffffffffffffffffffffffffffff1603611f0357806040517f7e273289000000000000000000000000000000000000000000000000000000008152600401611efa9190612e3f565b60405180910390fd5b81816040517f177e802f000000000000000000000000000000000000000000000000000000008152600401611f39929190612810565b60405180910390fd5b505050565b611f5183836121d5565b611f65611f5c611274565b5f858585611963565b505050565b60605f6001611f78846122c8565b0190505f8167ffffffffffffffff811115611f9657611f9561283f565b5b6040519080825280601f01601f191660200182016040528015611fc85781602001600182028036833780820191505090505b5090505f82602083010190505b600115612029578080600190039150507f3031323334353637383961626364656600000000000000000000000000000000600a86061a8153600a858161201e5761201d613195565b5b0494505f8503611fd5575b819350505050919050565b5f7f80ac58cd000000000000000000000000000000000000000000000000000000007bffffffffffffffffffffffffffffffffffffffffffffffffffffffff1916827bffffffffffffffffffffffffffffffffffffffffffffffffffffffff191614806120fe57507f5b5e139f000000000000000000000000000000000000000000000000000000007bffffffffffffffffffffffffffffffffffffffffffffffffffffffff1916827bffffffffffffffffffffffffffffffffffffffffffffffffffffffff1916145b8061210e575061210d82612419565b5b9050919050565b5f5f73ffffffffffffffffffffffffffffffffffffffff168373ffffffffffffffffffffffffffffffffffffffff16141580156121cc57508273ffffffffffffffffffffffffffffffffffffffff168473ffffffffffffffffffffffffffffffffffffffff16148061218d575061218c8484610cd0565b5b806121cb57508273ffffffffffffffffffffffffffffffffffffffff166121b38361123b565b73ffffffffffffffffffffffffffffffffffffffff16145b5b90509392505050565b5f73ffffffffffffffffffffffffffffffffffffffff168273ffffffffffffffffffffffffffffffffffffffff1603612245575f6040517f64a0ae9200000000000000000000000000000000000000000000000000000000815260040161223c919061271c565b60405180910390fd5b5f61225183835f61128d565b90505f73ffffffffffffffffffffffffffffffffffffffff168173ffffffffffffffffffffffffffffffffffffffff16146122c3575f6040517f73c6ac6e0000000000000000000000000000000000000000000000000000000081526004016122ba919061271c565b60405180910390fd5b505050565b5f5f5f90507a184f03e93ff9f4daa797ed6e38ed64bf6a1f0100000000000000008310612324577a184f03e93ff9f4daa797ed6e38ed64bf6a1f010000000000000000838161231a57612319613195565b5b0492506040810190505b6d04ee2d6d415b85acef81000000008310612361576d04ee2d6d415b85acef8100000000838161235757612356613195565b5b0492506020810190505b662386f26fc10000831061239057662386f26fc10000838161238657612385613195565b5b0492506010810190505b6305f5e10083106123b9576305f5e10083816123af576123ae613195565b5b0492506008810190505b61271083106123de5761271083816123d4576123d3613195565b5b0492506004810190505b6064831061240157606483816123f7576123f6613195565b5b0492506002810190505b600a8310612410576001810190505b80915050919050565b5f7f01ffc9a7000000000000000000000000000000000000000000000000000000007bffffffffffffffffffffffffffffffffffffffffffffffffffffffff1916827bffffffffffffffffffffffffffffffffffffffffffffffffffffffff1916149050919050565b5f604051905090565b5f5ffd5b5f5ffd5b5f7fffffffff0000000000000000000000000000000000000000000000000000000082169050919050565b6124c781612493565b81146124d1575f5ffd5b50565b5f813590506124e2816124be565b92915050565b5f602082840312156124fd576124fc61248b565b5b5f61250a848285016124d4565b91505092915050565b5f8115159050919050565b61252781612513565b82525050565b5f6020820190506125405f83018461251e565b92915050565b5f73ffffffffffffffffffffffffffffffffffffffff82169050919050565b5f61256f82612546565b9050919050565b61257f81612565565b8114612589575f5ffd5b50565b5f8135905061259a81612576565b92915050565b5f6bffffffffffffffffffffffff82169050919050565b6125c0816125a0565b81146125ca575f5ffd5b50565b5f813590506125db816125b7565b92915050565b5f5f604083850312156125f7576125f661248b565b5b5f6126048582860161258c565b9250506020612615858286016125cd565b9150509250929050565b5f81519050919050565b5f82825260208201905092915050565b8281835e5f83830152505050565b5f601f19601f8301169050919050565b5f6126618261261f565b61266b8185612629565b935061267b818560208601612639565b61268481612647565b840191505092915050565b5f6020820190508181035f8301526126a78184612657565b905092915050565b5f819050919050565b6126c1816126af565b81146126cb575f5ffd5b50565b5f813590506126dc816126b8565b92915050565b5f602082840312156126f7576126f661248b565b5b5f612704848285016126ce565b91505092915050565b61271681612565565b82525050565b5f60208201905061272f5f83018461270d565b92915050565b5f5f6040838503121561274b5761274a61248b565b5b5f6127588582860161258c565b9250506020612769858286016126ce565b9150509250929050565b5f5f5f6060848603121561278a5761278961248b565b5b5f6127978682870161258c565b93505060206127a88682870161258c565b92505060406127b9868287016126ce565b9150509250925092565b5f5f604083850312156127d9576127d861248b565b5b5f6127e6858286016126ce565b92505060206127f7858286016126ce565b9150509250929050565b61280a816126af565b82525050565b5f6040820190506128235f83018561270d565b6128306020830184612801565b9392505050565b5f5ffd5b5f5ffd5b7f4e487b71000000000000000000000000000000000000000000000000000000005f52604160045260245ffd5b61287582612647565b810181811067ffffffffffffffff821117156128945761289361283f565b5b80604052505050565b5f6128a6612482565b90506128b2828261286c565b919050565b5f67ffffffffffffffff8211156128d1576128d061283f565b5b6128da82612647565b9050602081019050919050565b828183375f83830152505050565b5f612907612902846128b7565b61289d565b9050828152602081018484840111156129235761292261283b565b5b61292e8482856128e7565b509392505050565b5f82601f83011261294a57612949612837565b5b813561295a8482602086016128f5565b91505092915050565b5f5ffd5b5f5ffd5b5f608082840312156129805761297f612963565b5b61298a608061289d565b90505f82013567ffffffffffffffff8111156129a9576129a8612967565b5b6129b584828501612936565b5f83015250602082013567ffffffffffffffff8111156129d8576129d7612967565b5b6129e484828501612936565b60208301525060406129f8848285016126ce565b6040830152506060612a0c848285016126ce565b60608301525092915050565b5f5f5f60608486031215612a2f57612a2e61248b565b5b5f612a3c8682870161258c565b935050602084013567ffffffffffffffff811115612a5d57612a5c61248f565b5b612a6986828701612936565b925050604084013567ffffffffffffffff811115612a8a57612a8961248f565b5b612a968682870161296b565b9150509250925092565b5f5f5f60608486031215612ab757612ab661248b565b5b5f612ac4868287016126ce565b9350506020612ad58682870161258c565b9250506040612ae6868287016125cd565b9150509250925092565b5f67ffffffffffffffff821115612b0a57612b0961283f565b5b602082029050602081019050919050565b5f5ffd5b5f612b31612b2c84612af0565b61289d565b90508083825260208201905060208402830185811115612b5457612b53612b1b565b5b835b81811015612b7d5780612b69888261258c565b845260208401935050602081019050612b56565b5050509392505050565b5f82601f830112612b9b57612b9a612837565b5b8135612bab848260208601612b1f565b91505092915050565b5f67ffffffffffffffff821115612bce57612bcd61283f565b5b602082029050602081019050919050565b5f612bf1612bec84612bb4565b61289d565b90508083825260208201905060208402830185811115612c1457612c13612b1b565b5b835b81811015612c5b57803567ffffffffffffffff811115612c3957612c38612837565b5b808601612c468982612936565b85526020850194505050602081019050612c16565b5050509392505050565b5f82601f830112612c7957612c78612837565b5b8135612c89848260208601612bdf565b91505092915050565b5f67ffffffffffffffff821115612cac57612cab61283f565b5b602082029050602081019050919050565b5f612ccf612cca84612c92565b61289d565b90508083825260208201905060208402830185811115612cf257612cf1612b1b565b5b835b81811015612d3957803567ffffffffffffffff811115612d1757612d16612837565b5b808601612d24898261296b565b85526020850194505050602081019050612cf4565b5050509392505050565b5f82601f830112612d5757612d56612837565b5b8135612d67848260208601612cbd565b91505092915050565b5f5f5f60608486031215612d8757612d8661248b565b5b5f84013567ffffffffffffffff811115612da457612da361248f565b5b612db086828701612b87565b935050602084013567ffffffffffffffff811115612dd157612dd061248f565b5b612ddd86828701612c65565b925050604084013567ffffffffffffffff811115612dfe57612dfd61248f565b5b612e0a86828701612d43565b9150509250925092565b5f60208284031215612e2957612e2861248b565b5b5f612e368482850161258c565b91505092915050565b5f602082019050612e525f830184612801565b92915050565b612e6181612513565b8114612e6b575f5ffd5b50565b5f81359050612e7c81612e58565b92915050565b5f5f60408385031215612e9857612e9761248b565b5b5f612ea58582860161258c565b9250506020612eb685828601612e6e565b9150509250929050565b5f67ffffffffffffffff821115612eda57612ed961283f565b5b612ee382612647565b9050602081019050919050565b5f612f02612efd84612ec0565b61289d565b905082815260208101848484011115612f1e57612f1d61283b565b5b612f298482856128e7565b509392505050565b5f82601f830112612f4557612f44612837565b5b8135612f55848260208601612ef0565b91505092915050565b5f5f5f5f60808587031215612f7657612f7561248b565b5b5f612f838782880161258c565b9450506020612f948782880161258c565b9350506040612fa5878288016126ce565b925050606085013567ffffffffffffffff811115612fc657612fc561248f565b5b612fd287828801612f31565b91505092959194509250565b612fe7816125a0565b82525050565b5f6020820190506130005f830184612fde565b92915050565b5f5f6040838503121561301c5761301b61248b565b5b5f6130298582860161258c565b925050602061303a8582860161258c565b9150509250929050565b5f6080820190508181035f83015261305c8187612657565b905081810360208301526130708186612657565b905061307f6040830185612801565b61308c6060830184612801565b95945050505050565b7f4e487b71000000000000000000000000000000000000000000000000000000005f52602260045260245ffd5b5f60028204905060018216806130d957607f821691505b6020821081036130ec576130eb613095565b5b50919050565b5f6060820190506131055f83018661270d565b6131126020830185612801565b61311f604083018461270d565b949350505050565b7f4e487b71000000000000000000000000000000000000000000000000000000005f52601160045260245ffd5b5f61315e826126af565b9150613169836126af565b9250828202613177816126af565b9150828204841483151761318e5761318d613127565b5b5092915050565b7f4e487b71000000000000000000000000000000000000000000000000000000005f52601260045260245ffd5b5f6131cc826126af565b91506131d7836126af565b9250826131e7576131e6613195565b5b828204905092915050565b5f6131fc826126af565b91507fffffffffffffffffffffffffffffffffffffffffffffffffffffffffffffffff820361322e5761322d613127565b5b600182019050919050565b5f819050815f5260205f209050919050565b5f6020601f8301049050919050565b5f82821b905092915050565b5f600883026132957fffffffffffffffffffffffffffffffffffffffffffffffffffffffffffffffff8261325a565b61329f868361325a565b95508019841693508086168417925050509392505050565b5f819050919050565b5f6132da6132d56132d0846126af565b6132b7565b6126af565b9050919050565b5f819050919050565b6132f3836132c0565b6133076132ff826132e1565b848454613266565b825550505050565b5f5f905090565b61331e61330f565b6133298184846132ea565b505050565b5b8181101561334c576133415f82613316565b60018101905061332f565b5050565b601f8211156133915761336281613239565b61336b8461324b565b8101602085101561337a578190505b61338e6133868561324b565b83018261332e565b50505b505050565b5f82821c905092915050565b5f6133b15f1984600802613396565b1980831691505092915050565b5f6133c983836133a2565b9150826002028217905092915050565b6133e28261261f565b67ffffffffffffffff8111156133fb576133fa61283f565b5b61340582546130c2565b613410828285613350565b5f60209050601f831160018114613441575f841561342f578287015190505b61343985826133be565b8655506134a0565b601f19841661344f86613239565b5f5b8281101561347657848901518255600182019150602085019450602081019050613451565b86831015613493578489015161348f601f8916826133a2565b8355505b6001600288020188555050505b505050505050565b5f6040820190508181035f8301526134c08185612657565b905081810360208301526134d48184612657565b90509392505050565b7f4172726179206c656e67746873206d757374206d6174636800000000000000005f82015250565b5f613511601883612629565b915061351c826134dd565b602082019050919050565b5f6020820190508181035f83015261353e81613505565b9050919050565b7f4e487b71000000000000000000000000000000000000000000000000000000005f52603260045260245ffd5b5f81905092915050565b5f6135868261261f565b6135908185613572565b93506135a0818560208601612639565b80840191505092915050565b5f6135b7828561357c565b91506135c3828461357c565b91508190509392505050565b5f6135e96135e46135df846125a0565b6132b7565b6126af565b9050919050565b6135f9816135cf565b82525050565b5f6040820190506136125f8301856135f0565b61361f6020830184612801565b9392505050565b5f6060820190506136395f830186612801565b61364660208301856135f0565b6136536040830184612801565b949350505050565b5f60408201905061366e5f830185612801565b61367b602083018461270d565b9392505050565b5f81519050919050565b5f82825260208201905092915050565b5f6136a682613682565b6136b0818561368c565b93506136c0818560208601612639565b6136c981612647565b840191505092915050565b5f6080820190506136e75f83018761270d565b6136f4602083018661270d565b6137016040830185612801565b8181036060830152613713818461369c565b905095945050505050565b5f8151905061372c816124be565b92915050565b5f602082840312156137475761374661248b565b5b5f6137548482850161371e565b9150509291505056fea2646970667358221220581dc4b444c0cc0741c4076fe41bbdbb18835064ed114d8ee7c9cadc3d1c290264736f6c634300081c0033","linkReferences":{}},"methodIdentifiers":{"DEFAULT_ROYALTY_FEE()":"d3e6dff0","approve(address,uint256)":"095ea7b3","balanceOf(address)":"70a08231","batchMintCard(address[],string[],(string,string,uint256,uint256)[])":"60004b7d","cardData(uint256)":"fea9d911","getApproved(uint256)":"081812fc","isApprovedForAll(address,address)":"e985e9c5","mintCard(address,string,(string,string,uint256,uint256))":"2b40a4db","name()":"06fdde03","owner()":"8da5cb5b","ownerOf(uint256)":"6352211e","renounceOwnership()":"715018a6","royaltyInfo(uint256,uint256)":"2a55205a","safeTransferFrom(address,address,uint256)":"42842e0e","safeTransferFrom(address,address,uint256,bytes)":"b88d4fde","setApprovalForAll(address,bool)":"a22cb465","setDefaultRoyalty(address,uint96)":"04634d8d","setTokenRoyalty(uint256,address,uint96)":"5944c753","supportsInterface(bytes4)":"01ffc9a7","symbol()":"95d89b41","tokenURI(uint256)":"c87b56dd","transferFrom(address,address,uint256)":"23b872dd","transferOwnership(address)":"f2fde38b"},"id":45}