{"abi":[{"type":"constructor","inputs":[],"stateMutability":"nonpayable"},{"type":"function","name":"DEFAULT_ROYALTY_FEE","inputs":[],"outputs":[{"name":"","type":"uint96","internalType":"uint96"}],"stateMutability":"view"},{"type":"function","name":"approve","inputs":[{"name":"to","type":"address","internalType":"address"},{"name":"tokenId","type":"uint256","internalType":"uint256"}],"outputs":[],"stateMutability":"nonpayable"},{"type":"function","name":"balanceOf","inputs":[{"name":"owner","type":"address","internalType":"address"}],"outputs":[{"name":"","type":"uint256","internalType":"uint256"}],"stateMutability":"view"},{"type":"function","name":"batchMintCard","inputs":[{"name":"to","type":"address[]","internalType":"address[]"},{"name":"tokenURIs","type":"string[]","internalType":"string[]"},{"name":"data","type":"tuple[]","internalType":"struct PokemonCard.PokemonCardData[]","components":[{"name":"name","type":"string","internalType":"string"},{"name":"rarity","type":"string","internalType":"string"},{"name":"series","type":"uint256","internalType":"uint256"},{"name":"cardNumber","type":"uint256","internalType":"uint256"}]}],"outputs":[],"stateMutability":"nonpayable"},{"type":"function","name":"cardData","inputs":[{"name":"","type":"uint256","internalType":"uint256"}],"outputs":[{"name":"name","type":"string","internalType":"string"},{"name":"rarity","type":"string","internalType":"string"},{"name":"series","type":"uint256","internalType":"uint256"},{"name":"cardNumber","type":"uint256","internalType":"uint256"}],"stateMutability":"view"},{"type":"function","name":"getApproved","inputs":[{"name":"tokenId","type":"uint256","internalType":"uint256"}],"outputs":[{"name":"","type":"address","internalType":"address"}],"stateMutability":"view"},{"type":"function","name":"isApprovedForAll","inputs":[{"name":"owner","type":"address","internalType":"address"},{"name":"operator","type":"address","internalType":"address"}],"outputs":[{"name":"","type":"bool","internalType":"bool"}],"stateMutability":"view"},{"type":"function","name":"mintCard","inputs":[{"name":"to","type":"address","internalType":"address"},{"name":"tokenURI","type":"string","internalType":"string"},{"name":"data","type":"tuple","internalType":"struct PokemonCard.PokemonCardData","components":[{"name":"name","type":"string","internalType":"string"},{"name":"rarity","type":"string","internalType":"string"},{"name":"series","type":"uint256","internalType":"uint256"},{"name":"cardNumber","type":"uint256","internalType":"uint256"}]}],"outputs":[],"stateMutability":"nonpayable"},{"type":"function","name":"name","inputs":[],"outputs":[{"name":"","type":"string","internalType":"string"}],"stateMutability":"view"},{"type":"function","name":"owner","inputs":[],"outputs":[{"name":"","type":"address","internalType":"address"}],"stateMutability":"view"},{"type":"function","name":"ownerOf","inputs":[{"name":"tokenId","type":"uint256","internalType":"uint256"}],"outputs":[{"name":"","type":"address","internalType":"address"}],"stateMutability":"view"},{"type":"function","name":"renounceOwnership","inputs":[],"outputs":[],"stateMutability":"nonpayable"},{"type":"function","name":"royaltyInfo","inputs":[{"name":"tokenId","type":"uint256","internalType":"uint256"},{"name":"salePrice","type":"uint256","internalType":"uint256"}],"outputs":[{"name":"receiver","type":"address","internalType":"address"},{"name":"amount","type":"uint256","internalType":"uint256"}],"stateMutability":"view"},{"type":"function","name":"safeTransferFrom","inputs":[{"name":"from","type":"address","internalType":"address"},{"name":"to","type":"address","internalType":"address"},{"name":"tokenId","type":"uint256","internalType":"uint256"}],"outputs":[],"stateMutability":"nonpayable"},{"type":"function","name":"safeTransferFrom","inputs":[{"name":"from","type":"address","internalType":"address"},{"name":"to","type":"address","internalType":"address"},{"name":"tokenId","type":"uint256","internalType":"uint256"},{"name":"data","type":"bytes","internalType":"bytes"}],"outputs":[],"stateMutability":"nonpayable"},{"type":"function","name":"setApprovalForAll","inputs":[{"name":"operator","type":"address","internalType":"address"},{"name":"approved","type":"bool","internalType":"bool"}],"outputs":[],"stateMutability":"nonpayable"},{"type":"function","name":"setDefaultRoyalty","inputs":[{"name":"receiver","type":"address","internalType":"address"},{"name":"feeNumerator","type":"uint96","internalType":"uint96"}],"outputs":[],"stateMutability":"nonpayable"},{"type":"function","name":"setTokenRoyalty","inputs":[{"name":"tokenId","type":"uint256","internalType":"uint256"},{"name":"receiver","type":"address","internalType":"address"},{"name":"feeNumerator","type":"uint96","internalType":"uint96"}],"outputs":[],"stateMutability":"nonpayable"},{"type":"function","name":"supportsInterface","inputs":[{"name":"interfaceId","type":"bytes4","internalType":"bytes4"}],"outputs":[{"name":"","type":"bool","internalType":"bool"}],"stateMutability":"view"},{"type":"function","name":"symbol","inputs":[],"outputs":[{"name":"","type":"string","internalType":"string"}],"stateMutability":"view"},{"type":"function","name":"tokenURI","inputs":[{"name":"tokenId","type":"uint256","internalType":"uint256"}],"outputs":[{"name":"","type":"string","internalType":"string"}],"stateMutability":"view"},{"type":"function","name":"totalSupply","inputs":[],"outputs":[{"name":"","type":"uint256","internalType":"uint256"}],"stateMutability":"view"},{"type":"function","name":"transferFrom","inputs":[{"name":"from","type":"address","internalType":"address"},{"name":"to","type":"address","internalType":"address"},{"name":"tokenId","type":"uint256","internalType":"uint256"}],"outputs":[],"stateMutability":"nonpayable"},{"type":"function","name":"transferOwnership","inputs":[{"name":"newOwner","type":"address","internalType":"address"}],"outputs":[],"stateMutability":"nonpayable"},{"type":"event","name":"Approval","inputs":[{"name":"owner","type":"address","indexed":true,"internalType":"address"},{"name":"approved","type":"address","indexed":true,"internalType":"address"},{"name":"tokenId","type":"uint256","indexed":true,"internalType":"uint256"}],"anonymous":false},{"type":"event","name":"ApprovalForAll","inputs":[{"name":"owner","type":"address","indexed":true,"internalType":"address"},{"name":"operator","type":"address","indexed":true,"internalType":"address"},{"name":"approved","type":"bool","indexed":false,"internalType":"bool"}],"anonymous":false},{"type":"event","name":"BatchMetadataUpdate","inputs":[{"name":"_fromTokenId","type":"uint256","indexed":false,"internalType":"uint256"},{"name":"_toTokenId","type":"uint256","indexed":false,"internalType":"uint256"}],"anonymous":false},{"type":"event","name":"CardMinted","inputs":[{"name":"tokenId","type":"uint256","indexed":true,"internalType":"uint256"},{"name":"to","type":"address","indexed":true,"internalType":"address"},{"name":"name","type":"string","indexed":false,"internalType":"string"},{"name":"rarity","type":"string","indexed":false,"internalType":"string"}],"anonymous":false},{"type":"event","name":"MetadataUpdate","inputs":[{"name":"_tokenId","type":"uint256","indexed":false,"internalType":"uint256"}],"anonymous":false},{"type":"event","name":"OwnershipTransferred","inputs":[{"name":"previousOwner","type":"address","indexed":true,"internalType":"address"},{"name":"newOwner","type":"address","indexed":true,"internalType":"address"}],"anonymous":false},{"type":"event","name":"Transfer","inputs":[{"name":"from","type":"address","indexed":true,"internalType":"address"},{"name":"to","type":"address","indexed":true,"internalType":"address"},{"name":"tokenId","type":"uint256","indexed":true,"internalType":"uint256"}],"anonymous":false},{"type":"error","name":"ERC2981InvalidDefaultRoyalty","inputs":[{"name":"numerator","type":"uint256","internalType":"uint256"},{"name":"denominator","type":"uint256","internalType":"uint256"}]},{"type":"error","name":"ERC2981InvalidDefaultRoyaltyReceiver","inputs":[{"name":"receiver","type":"address","internalType":"address"}]},{"type":"error","name":"ERC2981InvalidTokenRoyalty","inputs":[{"name":"tokenId","type":"uint256","internalType":"uint256"},{"name":"numerator","type":"uint256","internalType":"uint256"},{"name":"denominator","type":"uint256","internalType":"uint256"}]},{"type":"error","name":"ERC2981InvalidTokenRoyaltyReceiver","inputs":[{"name":"tokenId","type":"uint256","internalType":"uint256"},{"name":"receiver","type":"address","internalType":"address"}]},{"type":"error","name":"ERC721IncorrectOwner","inputs":[{"name":"sender","type":"address","internalType":"address"},{"name":"tokenId","type":"uint256","internalType":"uint256"},{"name":"owner","type":"address","internalType":"address"}]},{"type":"error","name":"ERC721InsufficientApproval","inputs":[{"name":"operator","type":"address","internalType":"address"},{"name":"tokenId","type":"uint256","internalType":"uint256"}]},{"type":"error","name":"ERC721InvalidApprover","inputs":[{"name":"approver","type":"address","internalType":"address"}]},{"type":"error","name":"ERC721InvalidOperator","inputs":[{"name":"operator","type":"address","internalType":"address"}]},{"type":"error","name":"ERC721InvalidOwner","inputs":[{"name":"owner","type":"address","internalType":"address"}]},{"type":"error","name":"ERC721InvalidReceiver","inputs":[{"name":"receiver","type":"address","internalType":"address"}]},{"type":"error","name":"ERC721InvalidSender","inputs":[{"name":"sender","type":"address","internalType":"address"}]},{"type":"error","name":"ERC721NonexistentToken","inputs":[{"name":"tokenId","type":"uint256","internalType":"uint256"}]},{"type":"error","name":"NotOwner","inputs":[]},{"type":"error","name":"OwnableInvalidOwner","inputs":[{"name":"owner","type":"address","internalType":"address"}]},{"type":"error","name":"OwnableUnauthorizedAccount","inputs":[{"name":"account","type":"address","internalType":"address"}]}],"bytecode":{"object":"0x608060405234801561000f575f5ffd5b50336040518060400160405280600b81526020017f506f6b656d6f6e436172640000000000000000000000000000000000000000008152506040518060400160405280600381526020017f504b430000000000000000000000000000000000000000000000000000000000815250815f908161008b91906105df565b50806001908161009b91906105df565b5050505f73ffffffffffffffffffffffffffffffffffffffff168173ffffffffffffffffffffffffffffffffffffffff160361010e575f6040517f1e4fbdf700000000000000000000000000000000000000000000000000000000815260040161010591906106ed565b60405180910390fd5b61011d8161013560201b60201c565b50610130336101f46101f860201b60201c565b610783565b5f60095f9054906101000a900473ffffffffffffffffffffffffffffffffffffffff1690508160095f6101000a81548173ffffffffffffffffffffffffffffffffffffffff021916908373ffffffffffffffffffffffffffffffffffffffff1602179055508173ffffffffffffffffffffffffffffffffffffffff168173ffffffffffffffffffffffffffffffffffffffff167f8be0079c531659141344cd1fd0a4f28419497f9722a3daafe3b4186f6b6457e060405160405180910390a35050565b5f61020761039960201b60201c565b6bffffffffffffffffffffffff16905080826bffffffffffffffffffffffff16111561026c5781816040517f6f483d0900000000000000000000000000000000000000000000000000000000815260040161026392919061075c565b60405180910390fd5b5f73ffffffffffffffffffffffffffffffffffffffff168373ffffffffffffffffffffffffffffffffffffffff16036102dc575f6040517fb6d9900a0000000000000000000000000000000000000000000000000000000081526004016102d391906106ed565b60405180910390fd5b60405180604001604052808473ffffffffffffffffffffffffffffffffffffffff168152602001836bffffffffffffffffffffffff1681525060075f820151815f015f6101000a81548173ffffffffffffffffffffffffffffffffffffffff021916908373ffffffffffffffffffffffffffffffffffffffff1602179055506020820151815f0160146101000a8154816bffffffffffffffffffffffff02191690836bffffffffffffffffffffffff160217905550905050505050565b5f612710905090565b5f81519050919050565b7f4e487b71000000000000000000000000000000000000000000000000000000005f52604160045260245ffd5b7f4e487b71000000000000000000000000000000000000000000000000000000005f52602260045260245ffd5b5f600282049050600182168061041d57607f821691505b6020821081036104305761042f6103d9565b5b50919050565b5f819050815f5260205f209050919050565b5f6020601f8301049050919050565b5f82821b905092915050565b5f600883026104927fffffffffffffffffffffffffffffffffffffffffffffffffffffffffffffffff82610457565b61049c8683610457565b95508019841693508086168417925050509392505050565b5f819050919050565b5f819050919050565b5f6104e06104db6104d6846104b4565b6104bd565b6104b4565b9050919050565b5f819050919050565b6104f9836104c6565b61050d610505826104e7565b848454610463565b825550505050565b5f5f905090565b610524610515565b61052f8184846104f0565b505050565b5b81811015610552576105475f8261051c565b600181019050610535565b5050565b601f8211156105975761056881610436565b61057184610448565b81016020851015610580578190505b61059461058c85610448565b830182610534565b50505b505050565b5f82821c905092915050565b5f6105b75f198460080261059c565b1980831691505092915050565b5f6105cf83836105a8565b9150826002028217905092915050565b6105e8826103a2565b67ffffffffffffffff811115610601576106006103ac565b5b61060b8254610406565b610616828285610556565b5f60209050601f831160018114610647575f8415610635578287015190505b61063f85826105c4565b8655506106a6565b601f19841661065586610436565b5f5b8281101561067c57848901518255600182019150602085019450602081019050610657565b868310156106995784890151610695601f8916826105a8565b8355505b6001600288020188555050505b505050505050565b5f73ffffffffffffffffffffffffffffffffffffffff82169050919050565b5f6106d7826106ae565b9050919050565b6106e7816106cd565b82525050565b5f6020820190506107005f8301846106de565b92915050565b5f6bffffffffffffffffffffffff82169050919050565b5f61073761073261072d84610706565b6104bd565b6104b4565b9050919050565b6107478161071d565b82525050565b610756816104b4565b82525050565b5f60408201905061076f5f83018561073e565b61077c602083018461074d565b9392505050565b6137c5806107905f395ff3fe608060405234801561000f575f5ffd5b5060043610610156575f3560e01c80636352211e116100c1578063b88d4fde1161007a578063b88d4fde146103ad578063c87b56dd146103c9578063d3e6dff0146103f9578063e985e9c514610417578063f2fde38b14610447578063fea9d9111461046357610156565b80636352211e146102eb57806370a082311461031b578063715018a61461034b5780638da5cb5b1461035557806395d89b4114610373578063a22cb4651461039157610156565b806323b872dd1161011357806323b872dd1461022e5780632a55205a1461024a5780632b40a4db1461027b57806342842e0e146102975780635944c753146102b357806360004b7d146102cf57610156565b806301ffc9a71461015a57806304634d8d1461018a57806306fdde03146101a6578063081812fc146101c4578063095ea7b3146101f457806318160ddd14610210575b5f5ffd5b610174600480360381019061016f919061251a565b610496565b604051610181919061255f565b60405180910390f35b6101a4600480360381019061019f9190612613565b6104a7565b005b6101ae6104bd565b6040516101bb91906126c1565b60405180910390f35b6101de60048036038101906101d99190612714565b61054c565b6040516101eb919061274e565b60405180910390f35b61020e60048036038101906102099190612767565b610567565b005b61021861057d565b60405161022591906127b4565b60405180910390f35b610248600480360381019061024391906127cd565b610586565b005b610264600480360381019061025f919061281d565b610685565b60405161027292919061285b565b60405180910390f35b61029560048036038101906102909190612a63565b6107a7565b005b6102b160048036038101906102ac91906127cd565b61088d565b005b6102cd60048036038101906102c89190612aeb565b6108ac565b005b6102e960048036038101906102e49190612dbb565b6108c4565b005b61030560048036038101906103009190612714565b610ab3565b604051610312919061274e565b60405180910390f35b61033560048036038101906103309190612e5f565b610ac4565b60405161034291906127b4565b60405180910390f35b610353610b7a565b005b61035d610b8d565b60405161036a919061274e565b60405180910390f35b61037b610bb5565b60405161038891906126c1565b60405180910390f35b6103ab60048036038101906103a69190612eb4565b610c45565b005b6103c760048036038101906103c29190612f90565b610c5b565b005b6103e360048036038101906103de9190612714565b610c80565b6040516103f091906126c1565b60405180910390f35b610401610cfc565b60405161040e919061301f565b60405180910390f35b610431600480360381019061042c9190613038565b610d02565b60405161043e919061255f565b60405180910390f35b610461600480360381019061045c9190612e5f565b610d90565b005b61047d60048036038101906104789190612714565b610e14565b60405161048d9493929190613076565b60405180910390f35b5f6104a082610f4c565b9050919050565b6104af610fc5565b6104b9828261104c565b5050565b60605f80546104cb906130f4565b80601f01602080910402602001604051908101604052809291908181526020018280546104f7906130f4565b80156105425780601f1061051957610100808354040283529160200191610542565b820191905f5260205f20905b81548152906001019060200180831161052557829003601f168201915b5050505050905090565b5f610556826111e7565b506105608261126d565b9050919050565b61057982826105746112a6565b6112ad565b5050565b5f600a54905090565b5f73ffffffffffffffffffffffffffffffffffffffff168273ffffffffffffffffffffffffffffffffffffffff16036105f6575f6040517f64a0ae920000000000000000000000000000000000000000000000000000000081526004016105ed919061274e565b60405180910390fd5b5f61060983836106046112a6565b6112bf565b90508373ffffffffffffffffffffffffffffffffffffffff168173ffffffffffffffffffffffffffffffffffffffff161461067f578382826040517f64283d7b00000000000000000000000000000000000000000000000000000000815260040161067693929190613124565b60405180910390fd5b50505050565b5f5f5f60085f8681526020019081526020015f2090505f815f015f9054906101000a900473ffffffffffffffffffffffffffffffffffffffff1690505f825f0160149054906101000a90046bffffffffffffffffffffffff1690505f73ffffffffffffffffffffffffffffffffffffffff168273ffffffffffffffffffffffffffffffffffffffff16036107595760075f015f9054906101000a900473ffffffffffffffffffffffffffffffffffffffff16915060075f0160149054906101000a90046bffffffffffffffffffffffff1690505b5f6107626114ca565b6bffffffffffffffffffffffff16826bffffffffffffffffffffffff168861078a9190613186565b61079491906131f4565b9050828195509550505050509250929050565b6107af610fc5565b5f600a5f8154809291906107c290613224565b9190505590506107d284826114d3565b6107dc81846114f0565b81600b5f8381526020019081526020015f205f820151815f019081610801919061340b565b506020820151816001019081610817919061340b565b5060408201518160020155606082015181600301559050508373ffffffffffffffffffffffffffffffffffffffff16817f09394dacdfb781605e27c4bf5b7bf8a7e3abacb7086d4d35ce8f51182407b0f1845f0151856020015160405161087f9291906134da565b60405180910390a350505050565b6108a783838360405180602001604052805f815250610c5b565b505050565b6108b4610fc5565b6108bf83838361154a565b505050565b6108cc610fc5565b815183511480156108de575080518351145b61091d576040517f08c379a000000000000000000000000000000000000000000000000000000000815260040161091490613559565b60405180910390fd5b5f5f90505b8351811015610aad575f600a5f81548092919061093e90613224565b91905055905061096885838151811061095a57610959613577565b5b6020026020010151826114d3565b61098c8185848151811061097f5761097e613577565b5b60200260200101516114f0565b82828151811061099f5761099e613577565b5b6020026020010151600b5f8381526020019081526020015f205f820151815f0190816109cb919061340b565b5060208201518160010190816109e1919061340b565b506040820151816002015560608201518160030155905050848281518110610a0c57610a0b613577565b5b602002602001015173ffffffffffffffffffffffffffffffffffffffff16817f09394dacdfb781605e27c4bf5b7bf8a7e3abacb7086d4d35ce8f51182407b0f1858581518110610a5f57610a5e613577565b5b60200260200101515f0151868681518110610a7d57610a7c613577565b5b602002602001015160200151604051610a979291906134da565b60405180910390a3508080600101915050610922565b50505050565b5f610abd826111e7565b9050919050565b5f5f73ffffffffffffffffffffffffffffffffffffffff168273ffffffffffffffffffffffffffffffffffffffff1603610b35575f6040517f89c62b64000000000000000000000000000000000000000000000000000000008152600401610b2c919061274e565b60405180910390fd5b60035f8373ffffffffffffffffffffffffffffffffffffffff1673ffffffffffffffffffffffffffffffffffffffff1681526020019081526020015f20549050919050565b610b82610fc5565b610b8b5f6116f9565b565b5f60095f9054906101000a900473ffffffffffffffffffffffffffffffffffffffff16905090565b606060018054610bc4906130f4565b80601f0160208091040260200160405190810160405280929190818152602001828054610bf0906130f4565b8015610c3b5780601f10610c1257610100808354040283529160200191610c3b565b820191905f5260205f20905b815481529060010190602001808311610c1e57829003601f168201915b5050505050905090565b610c57610c506112a6565b83836117bc565b5050565b610c66848484610586565b610c7a610c716112a6565b85858585611995565b50505050565b6060610c8b826111e7565b505f610c95611b41565b90505f610ca184611b57565b90505f825103610cb5578092505050610cf7565b5f81511115610ce9578181604051602001610cd19291906135de565b60405160208183030381529060405292505050610cf7565b610cf284611bf8565b925050505b919050565b6101f481565b5f60055f8473ffffffffffffffffffffffffffffffffffffffff1673ffffffffffffffffffffffffffffffffffffffff1681526020019081526020015f205f8373ffffffffffffffffffffffffffffffffffffffff1673ffffffffffffffffffffffffffffffffffffffff1681526020019081526020015f205f9054906101000a900460ff16905092915050565b610d98610fc5565b5f73ffffffffffffffffffffffffffffffffffffffff168173ffffffffffffffffffffffffffffffffffffffff1603610e08575f6040517f1e4fbdf7000000000000000000000000000000000000000000000000000000008152600401610dff919061274e565b60405180910390fd5b610e11816116f9565b50565b600b602052805f5260405f205f91509050805f018054610e33906130f4565b80601f0160208091040260200160405190810160405280929190818152602001828054610e5f906130f4565b8015610eaa5780601f10610e8157610100808354040283529160200191610eaa565b820191905f5260205f20905b815481529060010190602001808311610e8d57829003601f168201915b505050505090806001018054610ebf906130f4565b80601f0160208091040260200160405190810160405280929190818152602001828054610eeb906130f4565b8015610f365780601f10610f0d57610100808354040283529160200191610f36565b820191905f5260205f20905b815481529060010190602001808311610f1957829003601f168201915b5050505050908060020154908060030154905084565b5f7f2a55205a000000000000000000000000000000000000000000000000000000007bffffffffffffffffffffffffffffffffffffffffffffffffffffffff1916827bffffffffffffffffffffffffffffffffffffffffffffffffffffffff19161480610fbe5750610fbd82611c5e565b5b9050919050565b610fcd6112a6565b73ffffffffffffffffffffffffffffffffffffffff16610feb610b8d565b73ffffffffffffffffffffffffffffffffffffffff161461104a5761100e6112a6565b6040517f118cdaa7000000000000000000000000000000000000000000000000000000008152600401611041919061274e565b60405180910390fd5b565b5f6110556114ca565b6bffffffffffffffffffffffff16905080826bffffffffffffffffffffffff1611156110ba5781816040517f6f483d090000000000000000000000000000000000000000000000000000000081526004016110b1929190613631565b60405180910390fd5b5f73ffffffffffffffffffffffffffffffffffffffff168373ffffffffffffffffffffffffffffffffffffffff160361112a575f6040517fb6d9900a000000000000000000000000000000000000000000000000000000008152600401611121919061274e565b60405180910390fd5b60405180604001604052808473ffffffffffffffffffffffffffffffffffffffff168152602001836bffffffffffffffffffffffff1681525060075f820151815f015f6101000a81548173ffffffffffffffffffffffffffffffffffffffff021916908373ffffffffffffffffffffffffffffffffffffffff1602179055506020820151815f0160146101000a8154816bffffffffffffffffffffffff02191690836bffffffffffffffffffffffff160217905550905050505050565b5f5f6111f283611cbe565b90505f73ffffffffffffffffffffffffffffffffffffffff168173ffffffffffffffffffffffffffffffffffffffff160361126457826040517f7e27328900000000000000000000000000000000000000000000000000000000815260040161125b91906127b4565b60405180910390fd5b80915050919050565b5f60045f8381526020019081526020015f205f9054906101000a900473ffffffffffffffffffffffffffffffffffffffff169050919050565b5f33905090565b6112ba8383836001611cf7565b505050565b5f5f6112ca84611cbe565b90505f73ffffffffffffffffffffffffffffffffffffffff168373ffffffffffffffffffffffffffffffffffffffff161461130b5761130a818486611eb6565b5b5f73ffffffffffffffffffffffffffffffffffffffff168173ffffffffffffffffffffffffffffffffffffffff16146113965761134a5f855f5f611cf7565b600160035f8373ffffffffffffffffffffffffffffffffffffffff1673ffffffffffffffffffffffffffffffffffffffff1681526020019081526020015f205f82825403925050819055505b5f73ffffffffffffffffffffffffffffffffffffffff168573ffffffffffffffffffffffffffffffffffffffff161461141557600160035f8773ffffffffffffffffffffffffffffffffffffffff1673ffffffffffffffffffffffffffffffffffffffff1681526020019081526020015f205f82825401925050819055505b8460025f8681526020019081526020015f205f6101000a81548173ffffffffffffffffffffffffffffffffffffffff021916908373ffffffffffffffffffffffffffffffffffffffff160217905550838573ffffffffffffffffffffffffffffffffffffffff168273ffffffffffffffffffffffffffffffffffffffff167fddf252ad1be2c89b69c2b068fc378daa952ba7f163c4a11628f55a4df523b3ef60405160405180910390a4809150509392505050565b5f612710905090565b6114ec828260405180602001604052805f815250611f79565b5050565b8060065f8481526020019081526020015f20908161150e919061340b565b507ff8e1a15aba9398e019f0b49df1a4fde98ee17ae345cb5f6b5e2c27f5033e8ce78260405161153e91906127b4565b60405180910390a15050565b5f6115536114ca565b6bffffffffffffffffffffffff16905080826bffffffffffffffffffffffff1611156115ba578382826040517fdfd1fc1b0000000000000000000000000000000000000000000000000000000081526004016115b193929190613658565b60405180910390fd5b5f73ffffffffffffffffffffffffffffffffffffffff168373ffffffffffffffffffffffffffffffffffffffff160361162c57835f6040517f969f085200000000000000000000000000000000000000000000000000000000815260040161162392919061368d565b60405180910390fd5b60405180604001604052808473ffffffffffffffffffffffffffffffffffffffff168152602001836bffffffffffffffffffffffff1681525060085f8681526020019081526020015f205f820151815f015f6101000a81548173ffffffffffffffffffffffffffffffffffffffff021916908373ffffffffffffffffffffffffffffffffffffffff1602179055506020820151815f0160146101000a8154816bffffffffffffffffffffffff02191690836bffffffffffffffffffffffff16021790555090505050505050565b5f60095f9054906101000a900473ffffffffffffffffffffffffffffffffffffffff1690508160095f6101000a81548173ffffffffffffffffffffffffffffffffffffffff021916908373ffffffffffffffffffffffffffffffffffffffff1602179055508173ffffffffffffffffffffffffffffffffffffffff168173ffffffffffffffffffffffffffffffffffffffff167f8be0079c531659141344cd1fd0a4f28419497f9722a3daafe3b4186f6b6457e060405160405180910390a35050565b5f73ffffffffffffffffffffffffffffffffffffffff168373ffffffffffffffffffffffffffffffffffffffff160361182c575f6040517fa9fbf51f000000000000000000000000000000000000000000000000000000008152600401611823919061274e565b60405180910390fd5b5f73ffffffffffffffffffffffffffffffffffffffff168273ffffffffffffffffffffffffffffffffffffffff160361189c57816040517f5b08ba18000000000000000000000000000000000000000000000000000000008152600401611893919061274e565b60405180910390fd5b8060055f8573ffffffffffffffffffffffffffffffffffffffff1673ffffffffffffffffffffffffffffffffffffffff1681526020019081526020015f205f8473ffffffffffffffffffffffffffffffffffffffff1673ffffffffffffffffffffffffffffffffffffffff1681526020019081526020015f205f6101000a81548160ff0219169083151502179055508173ffffffffffffffffffffffffffffffffffffffff168373ffffffffffffffffffffffffffffffffffffffff167f17307eab39ab6107e8899845ad3d59bd9653f200f220920489ca2b5937696c3183604051611988919061255f565b60405180910390a3505050565b5f8373ffffffffffffffffffffffffffffffffffffffff163b1115611b3a578273ffffffffffffffffffffffffffffffffffffffff1663150b7a02868685856040518563ffffffff1660e01b81526004016119f39493929190613706565b6020604051808303815f875af1925050508015611a2e57506040513d601f19601f82011682018060405250810190611a2b9190613764565b60015b611aaf573d805f8114611a5c576040519150601f19603f3d011682016040523d82523d5f602084013e611a61565b606091505b505f815103611aa757836040517f64a0ae92000000000000000000000000000000000000000000000000000000008152600401611a9e919061274e565b60405180910390fd5b805160208201fd5b63150b7a0260e01b7bffffffffffffffffffffffffffffffffffffffffffffffffffffffff1916817bffffffffffffffffffffffffffffffffffffffffffffffffffffffff191614611b3857836040517f64a0ae92000000000000000000000000000000000000000000000000000000008152600401611b2f919061274e565b60405180910390fd5b505b5050505050565b606060405180602001604052805f815250905090565b606060065f8381526020019081526020015f208054611b75906130f4565b80601f0160208091040260200160405190810160405280929190818152602001828054611ba1906130f4565b8015611bec5780601f10611bc357610100808354040283529160200191611bec565b820191905f5260205f20905b815481529060010190602001808311611bcf57829003601f168201915b50505050509050919050565b6060611c03826111e7565b505f611c0d611b41565b90505f815111611c2b5760405180602001604052805f815250611c56565b80611c3584611f9c565b604051602001611c469291906135de565b6040516020818303038152906040525b915050919050565b5f634906490660e01b7bffffffffffffffffffffffffffffffffffffffffffffffffffffffff1916827bffffffffffffffffffffffffffffffffffffffffffffffffffffffff19161480611cb75750611cb682612066565b5b9050919050565b5f60025f8381526020019081526020015f205f9054906101000a900473ffffffffffffffffffffffffffffffffffffffff169050919050565b8080611d2f57505f73ffffffffffffffffffffffffffffffffffffffff168273ffffffffffffffffffffffffffffffffffffffff1614155b15611e61575f611d3e846111e7565b90505f73ffffffffffffffffffffffffffffffffffffffff168373ffffffffffffffffffffffffffffffffffffffff1614158015611da857508273ffffffffffffffffffffffffffffffffffffffff168173ffffffffffffffffffffffffffffffffffffffff1614155b8015611dbb5750611db98184610d02565b155b15611dfd57826040517fa9fbf51f000000000000000000000000000000000000000000000000000000008152600401611df4919061274e565b60405180910390fd5b8115611e5f57838573ffffffffffffffffffffffffffffffffffffffff168273ffffffffffffffffffffffffffffffffffffffff167f8c5be1e5ebec7d5bd14f71427d1e84f3dd0314c0f7b2291e5b200ac8c7c3b92560405160405180910390a45b505b8360045f8581526020019081526020015f205f6101000a81548173ffffffffffffffffffffffffffffffffffffffff021916908373ffffffffffffffffffffffffffffffffffffffff16021790555050505050565b611ec1838383612147565b611f74575f73ffffffffffffffffffffffffffffffffffffffff168373ffffffffffffffffffffffffffffffffffffffff1603611f3557806040517f7e273289000000000000000000000000000000000000000000000000000000008152600401611f2c91906127b4565b60405180910390fd5b81816040517f177e802f000000000000000000000000000000000000000000000000000000008152600401611f6b92919061285b565b60405180910390fd5b505050565b611f838383612207565b611f97611f8e6112a6565b5f858585611995565b505050565b60605f6001611faa846122fa565b0190505f8167ffffffffffffffff811115611fc857611fc761288a565b5b6040519080825280601f01601f191660200182016040528015611ffa5781602001600182028036833780820191505090505b5090505f82602083010190505b60011561205b578080600190039150507f3031323334353637383961626364656600000000000000000000000000000000600a86061a8153600a85816120505761204f6131c7565b5b0494505f8503612007575b819350505050919050565b5f7f80ac58cd000000000000000000000000000000000000000000000000000000007bffffffffffffffffffffffffffffffffffffffffffffffffffffffff1916827bffffffffffffffffffffffffffffffffffffffffffffffffffffffff1916148061213057507f5b5e139f000000000000000000000000000000000000000000000000000000007bffffffffffffffffffffffffffffffffffffffffffffffffffffffff1916827bffffffffffffffffffffffffffffffffffffffffffffffffffffffff1916145b80612140575061213f8261244b565b5b9050919050565b5f5f73ffffffffffffffffffffffffffffffffffffffff168373ffffffffffffffffffffffffffffffffffffffff16141580156121fe57508273ffffffffffffffffffffffffffffffffffffffff168473ffffffffffffffffffffffffffffffffffffffff1614806121bf57506121be8484610d02565b5b806121fd57508273ffffffffffffffffffffffffffffffffffffffff166121e58361126d565b73ffffffffffffffffffffffffffffffffffffffff16145b5b90509392505050565b5f73ffffffffffffffffffffffffffffffffffffffff168273ffffffffffffffffffffffffffffffffffffffff1603612277575f6040517f64a0ae9200000000000000000000000000000000000000000000000000000000815260040161226e919061274e565b60405180910390fd5b5f61228383835f6112bf565b90505f73ffffffffffffffffffffffffffffffffffffffff168173ffffffffffffffffffffffffffffffffffffffff16146122f5575f6040517f73c6ac6e0000000000000000000000000000000000000000000000000000000081526004016122ec919061274e565b60405180910390fd5b505050565b5f5f5f90507a184f03e93ff9f4daa797ed6e38ed64bf6a1f0100000000000000008310612356577a184f03e93ff9f4daa797ed6e38ed64bf6a1f010000000000000000838161234c5761234b6131c7565b5b0492506040810190505b6d04ee2d6d415b85acef81000000008310612393576d04ee2d6d415b85acef81000000008381612389576123886131c7565b5b0492506020810190505b662386f26fc1000083106123c257662386f26fc1000083816123b8576123b76131c7565b5b0492506010810190505b6305f5e10083106123eb576305f5e10083816123e1576123e06131c7565b5b0492506008810190505b6127108310612410576127108381612406576124056131c7565b5b0492506004810190505b606483106124335760648381612429576124286131c7565b5b0492506002810190505b600a8310612442576001810190505b80915050919050565b5f7f01ffc9a7000000000000000000000000000000000000000000000000000000007bffffffffffffffffffffffffffffffffffffffffffffffffffffffff1916827bffffffffffffffffffffffffffffffffffffffffffffffffffffffff1916149050919050565b5f604051905090565b5f5ffd5b5f5ffd5b5f7fffffffff0000000000000000000000000000000000000000000000000000000082169050919050565b6124f9816124c5565b8114612503575f5ffd5b50565b5f81359050612514816124f0565b92915050565b5f6020828403121561252f5761252e6124bd565b5b5f61253c84828501612506565b91505092915050565b5f8115159050919050565b61255981612545565b82525050565b5f6020820190506125725f830184612550565b92915050565b5f73ffffffffffffffffffffffffffffffffffffffff82169050919050565b5f6125a182612578565b9050919050565b6125b181612597565b81146125bb575f5ffd5b50565b5f813590506125cc816125a8565b92915050565b5f6bffffffffffffffffffffffff82169050919050565b6125f2816125d2565b81146125fc575f5ffd5b50565b5f8135905061260d816125e9565b92915050565b5f5f60408385031215612629576126286124bd565b5b5f612636858286016125be565b9250506020612647858286016125ff565b9150509250929050565b5f81519050919050565b5f82825260208201905092915050565b8281835e5f83830152505050565b5f601f19601f8301169050919050565b5f61269382612651565b61269d818561265b565b93506126ad81856020860161266b565b6126b681612679565b840191505092915050565b5f6020820190508181035f8301526126d98184612689565b905092915050565b5f819050919050565b6126f3816126e1565b81146126fd575f5ffd5b50565b5f8135905061270e816126ea565b92915050565b5f60208284031215612729576127286124bd565b5b5f61273684828501612700565b91505092915050565b61274881612597565b82525050565b5f6020820190506127615f83018461273f565b92915050565b5f5f6040838503121561277d5761277c6124bd565b5b5f61278a858286016125be565b925050602061279b85828601612700565b9150509250929050565b6127ae816126e1565b82525050565b5f6020820190506127c75f8301846127a5565b92915050565b5f5f5f606084860312156127e4576127e36124bd565b5b5f6127f1868287016125be565b9350506020612802868287016125be565b925050604061281386828701612700565b9150509250925092565b5f5f60408385031215612833576128326124bd565b5b5f61284085828601612700565b925050602061285185828601612700565b9150509250929050565b5f60408201905061286e5f83018561273f565b61287b60208301846127a5565b9392505050565b5f5ffd5b5f5ffd5b7f4e487b71000000000000000000000000000000000000000000000000000000005f52604160045260245ffd5b6128c082612679565b810181811067ffffffffffffffff821117156128df576128de61288a565b5b80604052505050565b5f6128f16124b4565b90506128fd82826128b7565b919050565b5f67ffffffffffffffff82111561291c5761291b61288a565b5b61292582612679565b9050602081019050919050565b828183375f83830152505050565b5f61295261294d84612902565b6128e8565b90508281526020810184848401111561296e5761296d612886565b5b612979848285612932565b509392505050565b5f82601f83011261299557612994612882565b5b81356129a5848260208601612940565b91505092915050565b5f5ffd5b5f5ffd5b5f608082840312156129cb576129ca6129ae565b5b6129d560806128e8565b90505f82013567ffffffffffffffff8111156129f4576129f36129b2565b5b612a0084828501612981565b5f83015250602082013567ffffffffffffffff811115612a2357612a226129b2565b5b612a2f84828501612981565b6020830152506040612a4384828501612700565b6040830152506060612a5784828501612700565b60608301525092915050565b5f5f5f60608486031215612a7a57612a796124bd565b5b5f612a87868287016125be565b935050602084013567ffffffffffffffff811115612aa857612aa76124c1565b5b612ab486828701612981565b925050604084013567ffffffffffffffff811115612ad557612ad46124c1565b5b612ae1868287016129b6565b9150509250925092565b5f5f5f60608486031215612b0257612b016124bd565b5b5f612b0f86828701612700565b9350506020612b20868287016125be565b9250506040612b31868287016125ff565b9150509250925092565b5f67ffffffffffffffff821115612b5557612b5461288a565b5b602082029050602081019050919050565b5f5ffd5b5f612b7c612b7784612b3b565b6128e8565b90508083825260208201905060208402830185811115612b9f57612b9e612b66565b5b835b81811015612bc85780612bb488826125be565b845260208401935050602081019050612ba1565b5050509392505050565b5f82601f830112612be657612be5612882565b5b8135612bf6848260208601612b6a565b91505092915050565b5f67ffffffffffffffff821115612c1957612c1861288a565b5b602082029050602081019050919050565b5f612c3c612c3784612bff565b6128e8565b90508083825260208201905060208402830185811115612c5f57612c5e612b66565b5b835b81811015612ca657803567ffffffffffffffff811115612c8457612c83612882565b5b808601612c918982612981565b85526020850194505050602081019050612c61565b5050509392505050565b5f82601f830112612cc457612cc3612882565b5b8135612cd4848260208601612c2a565b91505092915050565b5f67ffffffffffffffff821115612cf757612cf661288a565b5b602082029050602081019050919050565b5f612d1a612d1584612cdd565b6128e8565b90508083825260208201905060208402830185811115612d3d57612d3c612b66565b5b835b81811015612d8457803567ffffffffffffffff811115612d6257612d61612882565b5b808601612d6f89826129b6565b85526020850194505050602081019050612d3f565b5050509392505050565b5f82601f830112612da257612da1612882565b5b8135612db2848260208601612d08565b91505092915050565b5f5f5f60608486031215612dd257612dd16124bd565b5b5f84013567ffffffffffffffff811115612def57612dee6124c1565b5b612dfb86828701612bd2565b935050602084013567ffffffffffffffff811115612e1c57612e1b6124c1565b5b612e2886828701612cb0565b925050604084013567ffffffffffffffff811115612e4957612e486124c1565b5b612e5586828701612d8e565b9150509250925092565b5f60208284031215612e7457612e736124bd565b5b5f612e81848285016125be565b91505092915050565b612e9381612545565b8114612e9d575f5ffd5b50565b5f81359050612eae81612e8a565b92915050565b5f5f60408385031215612eca57612ec96124bd565b5b5f612ed7858286016125be565b9250506020612ee885828601612ea0565b9150509250929050565b5f67ffffffffffffffff821115612f0c57612f0b61288a565b5b612f1582612679565b9050602081019050919050565b5f612f34612f2f84612ef2565b6128e8565b905082815260208101848484011115612f5057612f4f612886565b5b612f5b848285612932565b509392505050565b5f82601f830112612f7757612f76612882565b5b8135612f87848260208601612f22565b91505092915050565b5f5f5f5f60808587031215612fa857612fa76124bd565b5b5f612fb5878288016125be565b9450506020612fc6878288016125be565b9350506040612fd787828801612700565b925050606085013567ffffffffffffffff811115612ff857612ff76124c1565b5b61300487828801612f63565b91505092959194509250565b613019816125d2565b82525050565b5f6020820190506130325f830184613010565b92915050565b5f5f6040838503121561304e5761304d6124bd565b5b5f61305b858286016125be565b925050602061306c858286016125be565b9150509250929050565b5f6080820190508181035f83015261308e8187612689565b905081810360208301526130a28186612689565b90506130b160408301856127a5565b6130be60608301846127a5565b95945050505050565b7f4e487b71000000000000000000000000000000000000000000000000000000005f52602260045260245ffd5b5f600282049050600182168061310b57607f821691505b60208210810361311e5761311d6130c7565b5b50919050565b5f6060820190506131375f83018661273f565b61314460208301856127a5565b613151604083018461273f565b949350505050565b7f4e487b71000000000000000000000000000000000000000000000000000000005f52601160045260245ffd5b5f613190826126e1565b915061319b836126e1565b92508282026131a9816126e1565b915082820484148315176131c0576131bf613159565b5b5092915050565b7f4e487b71000000000000000000000000000000000000000000000000000000005f52601260045260245ffd5b5f6131fe826126e1565b9150613209836126e1565b925082613219576132186131c7565b5b828204905092915050565b5f61322e826126e1565b91507fffffffffffffffffffffffffffffffffffffffffffffffffffffffffffffffff82036132605761325f613159565b5b600182019050919050565b5f819050815f5260205f209050919050565b5f6020601f8301049050919050565b5f82821b905092915050565b5f600883026132c77fffffffffffffffffffffffffffffffffffffffffffffffffffffffffffffffff8261328c565b6132d1868361328c565b95508019841693508086168417925050509392505050565b5f819050919050565b5f61330c613307613302846126e1565b6132e9565b6126e1565b9050919050565b5f819050919050565b613325836132f2565b61333961333182613313565b848454613298565b825550505050565b5f5f905090565b613350613341565b61335b81848461331c565b505050565b5b8181101561337e576133735f82613348565b600181019050613361565b5050565b601f8211156133c3576133948161326b565b61339d8461327d565b810160208510156133ac578190505b6133c06133b88561327d565b830182613360565b50505b505050565b5f82821c905092915050565b5f6133e35f19846008026133c8565b1980831691505092915050565b5f6133fb83836133d4565b9150826002028217905092915050565b61341482612651565b67ffffffffffffffff81111561342d5761342c61288a565b5b61343782546130f4565b613442828285613382565b5f60209050601f831160018114613473575f8415613461578287015190505b61346b85826133f0565b8655506134d2565b601f1984166134818661326b565b5f5b828110156134a857848901518255600182019150602085019450602081019050613483565b868310156134c557848901516134c1601f8916826133d4565b8355505b6001600288020188555050505b505050505050565b5f6040820190508181035f8301526134f28185612689565b905081810360208301526135068184612689565b90509392505050565b7f4172726179206c656e67746873206d757374206d6174636800000000000000005f82015250565b5f61354360188361265b565b915061354e8261350f565b602082019050919050565b5f6020820190508181035f83015261357081613537565b9050919050565b7f4e487b71000000000000000000000000000000000000000000000000000000005f52603260045260245ffd5b5f81905092915050565b5f6135b882612651565b6135c281856135a4565b93506135d281856020860161266b565b80840191505092915050565b5f6135e982856135ae565b91506135f582846135ae565b91508190509392505050565b5f61361b613616613611846125d2565b6132e9565b6126e1565b9050919050565b61362b81613601565b82525050565b5f6040820190506136445f830185613622565b61365160208301846127a5565b9392505050565b5f60608201905061366b5f8301866127a5565b6136786020830185613622565b61368560408301846127a5565b949350505050565b5f6040820190506136a05f8301856127a5565b6136ad602083018461273f565b9392505050565b5f81519050919050565b5f82825260208201905092915050565b5f6136d8826136b4565b6136e281856136be565b93506136f281856020860161266b565b6136fb81612679565b840191505092915050565b5f6080820190506137195f83018761273f565b613726602083018661273f565b61373360408301856127a5565b818103606083015261374581846136ce565b905095945050505050565b5f8151905061375e816124f0565b92915050565b5f60208284031215613779576137786124bd565b5b5f61378684828501613750565b9150509291505056fea2646970667358221220f5be48894bc70e18d5111b6b5618892ad062eb9a4abfd48a31288bc9709e318c64736f6c634300081c0033","linkReferences":{}},"methodIdentifiers":{"DEFAULT_ROYALTY_FEE()":"d3e6dff0","approve(address,uint256)":"095ea7b3","balanceOf(address)":"70a08231","batchMintCard(address[],string[],(string,string,uint256,uint256)[])":"60004b7d","cardData(uint256)":"fea9d911","getApproved(uint256)":"081812fc","isApprovedForAll(address,address)":"e985e9c5","mintCard(address,string,(string,string,uint256,uint256))":"2b40a4db","name()":"06fdde03","owner()":"8da5cb5b","ownerOf(uint256)":"6352211e","renounceOwnership()":"715018a6","royaltyInfo(uint256,uint256)":"2a55205a","safeTransferFrom(address,address,uint256)":"42842e0e","safeTransferFrom(address,address,uint256,bytes)":"b88d4fde","setApprovalForAll(address,bool)":"a22cb465","setDefaultRoyalty(address,uint96)":"04634d8d","setTokenRoyalty(uint256,address,uint96)":"5944c753","supportsInterface(bytes4)":"01ffc9a7","symbol()":"95d89b41","tokenURI(uint256)":"c87b56dd","totalSupply()":"18160ddd","transferFrom(address,address,uint256)":"23b872dd","transferOwnership(address)":"f2fde38b"},"id":45}